{
  "_format": "hh-sol-artifact-1",
  "contractName": "NasaFT",
  "sourceName": "contracts/NasaFT.sol",
  "abi": [
    {
      "inputs": [],
      "stateMutability": "nonpayable",
      "type": "constructor"
    },
    {
      "anonymous": false,
      "inputs": [
        {
          "indexed": true,
          "internalType": "address",
          "name": "account",
          "type": "address"
        },
        {
          "indexed": true,
          "internalType": "address",
          "name": "operator",
          "type": "address"
        },
        {
          "indexed": false,
          "internalType": "bool",
          "name": "approved",
          "type": "bool"
        }
      ],
      "name": "ApprovalForAll",
      "type": "event"
    },
    {
      "anonymous": false,
      "inputs": [
        {
          "indexed": true,
          "internalType": "address",
          "name": "operator",
          "type": "address"
        },
        {
          "indexed": true,
          "internalType": "address",
          "name": "from",
          "type": "address"
        },
        {
          "indexed": true,
          "internalType": "address",
          "name": "to",
          "type": "address"
        },
        {
          "indexed": false,
          "internalType": "uint256[]",
          "name": "ids",
          "type": "uint256[]"
        },
        {
          "indexed": false,
          "internalType": "uint256[]",
          "name": "values",
          "type": "uint256[]"
        }
      ],
      "name": "TransferBatch",
      "type": "event"
    },
    {
      "anonymous": false,
      "inputs": [
        {
          "indexed": true,
          "internalType": "address",
          "name": "operator",
          "type": "address"
        },
        {
          "indexed": true,
          "internalType": "address",
          "name": "from",
          "type": "address"
        },
        {
          "indexed": true,
          "internalType": "address",
          "name": "to",
          "type": "address"
        },
        {
          "indexed": false,
          "internalType": "uint256",
          "name": "id",
          "type": "uint256"
        },
        {
          "indexed": false,
          "internalType": "uint256",
          "name": "value",
          "type": "uint256"
        }
      ],
      "name": "TransferSingle",
      "type": "event"
    },
    {
      "anonymous": false,
      "inputs": [
        {
          "indexed": false,
          "internalType": "string",
          "name": "value",
          "type": "string"
        },
        {
          "indexed": true,
          "internalType": "uint256",
          "name": "id",
          "type": "uint256"
        }
      ],
      "name": "URI",
      "type": "event"
    },
    {
      "inputs": [
        {
          "internalType": "address",
          "name": "account",
          "type": "address"
        },
        {
          "internalType": "uint256",
          "name": "id",
          "type": "uint256"
        }
      ],
      "name": "balanceOf",
      "outputs": [
        {
          "internalType": "uint256",
          "name": "",
          "type": "uint256"
        }
      ],
      "stateMutability": "view",
      "type": "function"
    },
    {
      "inputs": [
        {
          "internalType": "address[]",
          "name": "accounts",
          "type": "address[]"
        },
        {
          "internalType": "uint256[]",
          "name": "ids",
          "type": "uint256[]"
        }
      ],
      "name": "balanceOfBatch",
      "outputs": [
        {
          "internalType": "uint256[]",
          "name": "",
          "type": "uint256[]"
        }
      ],
      "stateMutability": "view",
      "type": "function"
    },
    {
      "inputs": [
        {
          "internalType": "address",
          "name": "from",
          "type": "address"
        },
        {
          "internalType": "uint256",
          "name": "id",
          "type": "uint256"
        },
        {
          "internalType": "uint256",
          "name": "copies",
          "type": "uint256"
        }
      ],
      "name": "burnTokens",
      "outputs": [],
      "stateMutability": "nonpayable",
      "type": "function"
    },
    {
      "inputs": [],
      "name": "contractOwner",
      "outputs": [
        {
          "internalType": "address payable",
          "name": "",
          "type": "address"
        }
      ],
      "stateMutability": "view",
      "type": "function"
    },
    {
      "inputs": [
        {
          "internalType": "address",
          "name": "account",
          "type": "address"
        },
        {
          "internalType": "address",
          "name": "operator",
          "type": "address"
        }
      ],
      "name": "isApprovedForAll",
      "outputs": [
        {
          "internalType": "bool",
          "name": "",
          "type": "bool"
        }
      ],
      "stateMutability": "view",
      "type": "function"
    },
    {
      "inputs": [
        {
          "internalType": "address",
          "name": "to",
          "type": "address"
        },
        {
          "internalType": "uint256",
          "name": "id",
          "type": "uint256"
        },
        {
          "internalType": "uint256",
          "name": "copies",
          "type": "uint256"
        }
      ],
      "name": "mintTokens",
      "outputs": [],
      "stateMutability": "nonpayable",
      "type": "function"
    },
    {
      "inputs": [
        {
          "internalType": "address",
          "name": "from",
          "type": "address"
        },
        {
          "internalType": "address",
          "name": "to",
          "type": "address"
        },
        {
          "internalType": "uint256[]",
          "name": "ids",
          "type": "uint256[]"
        },
        {
          "internalType": "uint256[]",
          "name": "amounts",
          "type": "uint256[]"
        },
        {
          "internalType": "bytes",
          "name": "data",
          "type": "bytes"
        }
      ],
      "name": "safeBatchTransferFrom",
      "outputs": [],
      "stateMutability": "nonpayable",
      "type": "function"
    },
    {
      "inputs": [
        {
          "internalType": "address",
          "name": "from",
          "type": "address"
        },
        {
          "internalType": "address",
          "name": "to",
          "type": "address"
        },
        {
          "internalType": "uint256",
          "name": "id",
          "type": "uint256"
        },
        {
          "internalType": "uint256",
          "name": "amount",
          "type": "uint256"
        },
        {
          "internalType": "bytes",
          "name": "data",
          "type": "bytes"
        }
      ],
      "name": "safeTransferFrom",
      "outputs": [],
      "stateMutability": "nonpayable",
      "type": "function"
    },
    {
      "inputs": [
        {
          "internalType": "address",
          "name": "operator",
          "type": "address"
        },
        {
          "internalType": "bool",
          "name": "approved",
          "type": "bool"
        }
      ],
      "name": "setApprovalForAll",
      "outputs": [],
      "stateMutability": "nonpayable",
      "type": "function"
    },
    {
      "inputs": [
        {
          "internalType": "bytes4",
          "name": "interfaceId",
          "type": "bytes4"
        }
      ],
      "name": "supportsInterface",
      "outputs": [
        {
          "internalType": "bool",
          "name": "",
          "type": "bool"
        }
      ],
      "stateMutability": "view",
      "type": "function"
    },
    {
      "inputs": [
        {
          "internalType": "uint256",
          "name": "id",
          "type": "uint256"
        }
      ],
      "name": "uri",
      "outputs": [
        {
          "internalType": "string",
          "name": "",
          "type": "string"
        }
      ],
      "stateMutability": "view",
      "type": "function"
    }
  ],
  "bytecode": "0x60806040523480156200001157600080fd5b506040518060400160405280601e81526020017f68747470733a2f2f67616d652e6578616d706c652f6170692f6974656d2f00008152506200005981620000a160201b60201c565b5033600360006101000a81548173ffffffffffffffffffffffffffffffffffffffff021916908373ffffffffffffffffffffffffffffffffffffffff16021790555062000417565b8060029081620000b2919062000330565b5050565b600081519050919050565b7f4e487b7100000000000000000000000000000000000000000000000000000000600052604160045260246000fd5b7f4e487b7100000000000000000000000000000000000000000000000000000000600052602260045260246000fd5b600060028204905060018216806200013857607f821691505b6020821081036200014e576200014d620000f0565b5b50919050565b60008190508160005260206000209050919050565b60006020601f8301049050919050565b600082821b905092915050565b600060088302620001b87fffffffffffffffffffffffffffffffffffffffffffffffffffffffffffffffff8262000179565b620001c4868362000179565b95508019841693508086168417925050509392505050565b6000819050919050565b6000819050919050565b6000620002116200020b6200020584620001dc565b620001e6565b620001dc565b9050919050565b6000819050919050565b6200022d83620001f0565b620002456200023c8262000218565b84845462000186565b825550505050565b600090565b6200025c6200024d565b6200026981848462000222565b505050565b5b8181101562000291576200028560008262000252565b6001810190506200026f565b5050565b601f821115620002e057620002aa8162000154565b620002b58462000169565b81016020851015620002c5578190505b620002dd620002d48562000169565b8301826200026e565b50505b505050565b600082821c905092915050565b60006200030560001984600802620002e5565b1980831691505092915050565b6000620003208383620002f2565b9150826002028217905092915050565b6200033b82620000b6565b67ffffffffffffffff811115620003575762000356620000c1565b5b6200036382546200011f565b6200037082828562000295565b600060209050601f831160018114620003a8576000841562000393578287015190505b6200039f858262000312565b8655506200040f565b601f198416620003b88662000154565b60005b82811015620003e257848901518255600182019150602085019450602081019050620003bb565b86831015620004025784890151620003fe601f891682620002f2565b8355505b6001600288020188555050505b505050505050565b61326580620004276000396000f3fe608060405234801561001057600080fd5b50600436106100a85760003560e01c80636831e272116100715780636831e27214610189578063a22cb465146101a5578063ce606ee0146101c1578063e0aeb7c1146101df578063e985e9c5146101fb578063f242432a1461022b576100a8565b8062fdd58e146100ad57806301ffc9a7146100dd5780630e89341c1461010d5780632eb2c2d61461013d5780634e1273f414610159575b600080fd5b6100c760048036038101906100c29190611dcd565b610247565b6040516100d49190611e1c565b60405180910390f35b6100f760048036038101906100f29190611e8f565b6102eb565b6040516101049190611ed7565b60405180910390f35b61012760048036038101906101229190611ef2565b6103cd565b6040516101349190611faf565b60405180910390f35b610157600480360381019061015291906121ce565b610498565b005b610173600480360381019061016e9190612360565b61053c565b6040516101809190612496565b60405180910390f35b6101a3600480360381019061019e91906124b8565b6105e0565b005b6101bf60048036038101906101ba9190612537565b610690565b005b6101c96106a6565b6040516101d69190612598565b60405180910390f35b6101f960048036038101906101f491906124b8565b6106cc565b005b610215600480360381019061021091906125b3565b61076c565b6040516102229190611ed7565b60405180910390f35b610245600480360381019061024091906125f3565b610800565b005b6000600360009054906101000a900473ffffffffffffffffffffffffffffffffffffffff1673ffffffffffffffffffffffffffffffffffffffff163373ffffffffffffffffffffffffffffffffffffffff16146102d9576040517f08c379a00000000000000000000000000000000000000000000000000000000081526004016102d090612722565b60405180910390fd5b6102e383836108a4565b905092915050565b60007fd9b67a26000000000000000000000000000000000000000000000000000000007bffffffffffffffffffffffffffffffffffffffffffffffffffffffff1916827bffffffffffffffffffffffffffffffffffffffffffffffffffffffff191614806103b657507f0e89341c000000000000000000000000000000000000000000000000000000007bffffffffffffffffffffffffffffffffffffffffffffffffffffffff1916827bffffffffffffffffffffffffffffffffffffffffffffffffffffffff1916145b806103c657506103c58261096c565b5b9050919050565b6060600360009054906101000a900473ffffffffffffffffffffffffffffffffffffffff1673ffffffffffffffffffffffffffffffffffffffff163373ffffffffffffffffffffffffffffffffffffffff161461045f576040517f08c379a000000000000000000000000000000000000000000000000000000000815260040161045690612722565b60405180910390fd5b610468826109d6565b61047183610a6a565b6040516020016104829291906127ca565b6040516020818303038152906040529050919050565b600360009054906101000a900473ffffffffffffffffffffffffffffffffffffffff1673ffffffffffffffffffffffffffffffffffffffff163373ffffffffffffffffffffffffffffffffffffffff1614610528576040517f08c379a000000000000000000000000000000000000000000000000000000000815260040161051f90612722565b60405180910390fd5b6105358585858585610b38565b5050505050565b6060600360009054906101000a900473ffffffffffffffffffffffffffffffffffffffff1673ffffffffffffffffffffffffffffffffffffffff163373ffffffffffffffffffffffffffffffffffffffff16146105ce576040517f08c379a00000000000000000000000000000000000000000000000000000000081526004016105c590612722565b60405180910390fd5b6105d88383610e59565b905092915050565b600360009054906101000a900473ffffffffffffffffffffffffffffffffffffffff1673ffffffffffffffffffffffffffffffffffffffff163373ffffffffffffffffffffffffffffffffffffffff1614610670576040517f08c379a000000000000000000000000000000000000000000000000000000000815260040161066790612722565b60405180910390fd5b61068b83838360405180602001604052806000815250610f72565b505050565b6106a261069b611122565b838361112a565b5050565b600360009054906101000a900473ffffffffffffffffffffffffffffffffffffffff1681565b600360009054906101000a900473ffffffffffffffffffffffffffffffffffffffff1673ffffffffffffffffffffffffffffffffffffffff163373ffffffffffffffffffffffffffffffffffffffff161461075c576040517f08c379a000000000000000000000000000000000000000000000000000000000815260040161075390612722565b60405180910390fd5b610767838383611296565b505050565b6000600160008473ffffffffffffffffffffffffffffffffffffffff1673ffffffffffffffffffffffffffffffffffffffff16815260200190815260200160002060008373ffffffffffffffffffffffffffffffffffffffff1673ffffffffffffffffffffffffffffffffffffffff16815260200190815260200160002060009054906101000a900460ff16905092915050565b600360009054906101000a900473ffffffffffffffffffffffffffffffffffffffff1673ffffffffffffffffffffffffffffffffffffffff163373ffffffffffffffffffffffffffffffffffffffff1614610890576040517f08c379a000000000000000000000000000000000000000000000000000000000815260040161088790612722565b60405180910390fd5b61089d85858585856114dc565b5050505050565b60008073ffffffffffffffffffffffffffffffffffffffff168373ffffffffffffffffffffffffffffffffffffffff1603610914576040517f08c379a000000000000000000000000000000000000000000000000000000000815260040161090b9061286b565b60405180910390fd5b60008083815260200190815260200160002060008473ffffffffffffffffffffffffffffffffffffffff1673ffffffffffffffffffffffffffffffffffffffff16815260200190815260200160002054905092915050565b60007f01ffc9a7000000000000000000000000000000000000000000000000000000007bffffffffffffffffffffffffffffffffffffffffffffffffffffffff1916827bffffffffffffffffffffffffffffffffffffffffffffffffffffffff1916149050919050565b6060600280546109e5906128ba565b80601f0160208091040260200160405190810160405280929190818152602001828054610a11906128ba565b8015610a5e5780601f10610a3357610100808354040283529160200191610a5e565b820191906000526020600020905b815481529060010190602001808311610a4157829003601f168201915b50505050509050919050565b606060006001610a7984611777565b01905060008167ffffffffffffffff811115610a9857610a97611fd6565b5b6040519080825280601f01601f191660200182016040528015610aca5781602001600182028036833780820191505090505b509050600082602001820190505b600115610b2d578080600190039150507f3031323334353637383961626364656600000000000000000000000000000000600a86061a8153600a8581610b2157610b206128eb565b5b04945060008503610ad8575b819350505050919050565b8151835114610b7c576040517f08c379a0000000000000000000000000000000000000000000000000000000008152600401610b739061298c565b60405180910390fd5b600073ffffffffffffffffffffffffffffffffffffffff168473ffffffffffffffffffffffffffffffffffffffff1603610beb576040517f08c379a0000000000000000000000000000000000000000000000000000000008152600401610be290612a1e565b60405180910390fd5b6000610bf5611122565b9050610c058187878787876118ca565b60005b8451811015610db6576000858281518110610c2657610c25612a3e565b5b602002602001015190506000858381518110610c4557610c44612a3e565b5b60200260200101519050600080600084815260200190815260200160002060008b73ffffffffffffffffffffffffffffffffffffffff1673ffffffffffffffffffffffffffffffffffffffff16815260200190815260200160002054905081811015610ce6576040517f08c379a0000000000000000000000000000000000000000000000000000000008152600401610cdd90612adf565b60405180910390fd5b81810360008085815260200190815260200160002060008c73ffffffffffffffffffffffffffffffffffffffff1673ffffffffffffffffffffffffffffffffffffffff168152602001908152602001600020819055508160008085815260200190815260200160002060008b73ffffffffffffffffffffffffffffffffffffffff1673ffffffffffffffffffffffffffffffffffffffff1681526020019081526020016000206000828254610d9b9190612b2e565b9250508190555050505080610daf90612b62565b9050610c08565b508473ffffffffffffffffffffffffffffffffffffffff168673ffffffffffffffffffffffffffffffffffffffff168273ffffffffffffffffffffffffffffffffffffffff167f4a39dc06d4c0dbc64b70af90fd698a233a518aa5d07e595d983b8c0526c8f7fb8787604051610e2d929190612baa565b60405180910390a4610e438187878787876118d2565b610e518187878787876118da565b505050505050565b60608151835114610e9f576040517f08c379a0000000000000000000000000000000000000000000000000000000008152600401610e9690612c53565b60405180910390fd5b6000835167ffffffffffffffff811115610ebc57610ebb611fd6565b5b604051908082528060200260200182016040528015610eea5781602001602082028036833780820191505090505b50905060005b8451811015610f6757610f37858281518110610f0f57610f0e612a3e565b5b6020026020010151858381518110610f2a57610f29612a3e565b5b6020026020010151610247565b828281518110610f4a57610f49612a3e565b5b60200260200101818152505080610f6090612b62565b9050610ef0565b508091505092915050565b600073ffffffffffffffffffffffffffffffffffffffff168473ffffffffffffffffffffffffffffffffffffffff1603610fe1576040517f08c379a0000000000000000000000000000000000000000000000000000000008152600401610fd890612ce5565b60405180910390fd5b6000610feb611122565b90506000610ff885611ab1565b9050600061100585611ab1565b9050611016836000898585896118ca565b8460008088815260200190815260200160002060008973ffffffffffffffffffffffffffffffffffffffff1673ffffffffffffffffffffffffffffffffffffffff16815260200190815260200160002060008282546110759190612b2e565b925050819055508673ffffffffffffffffffffffffffffffffffffffff16600073ffffffffffffffffffffffffffffffffffffffff168473ffffffffffffffffffffffffffffffffffffffff167fc3d58168c5ae7397731d063d5bbf3d657854427343f4c083240f7aacaa2d0f6289896040516110f3929190612d05565b60405180910390a461110a836000898585896118d2565b61111983600089898989611b2b565b50505050505050565b600033905090565b8173ffffffffffffffffffffffffffffffffffffffff168373ffffffffffffffffffffffffffffffffffffffff1603611198576040517f08c379a000000000000000000000000000000000000000000000000000000000815260040161118f90612da0565b60405180910390fd5b80600160008573ffffffffffffffffffffffffffffffffffffffff1673ffffffffffffffffffffffffffffffffffffffff16815260200190815260200160002060008473ffffffffffffffffffffffffffffffffffffffff1673ffffffffffffffffffffffffffffffffffffffff16815260200190815260200160002060006101000a81548160ff0219169083151502179055508173ffffffffffffffffffffffffffffffffffffffff168373ffffffffffffffffffffffffffffffffffffffff167f17307eab39ab6107e8899845ad3d59bd9653f200f220920489ca2b5937696c31836040516112899190611ed7565b60405180910390a3505050565b600073ffffffffffffffffffffffffffffffffffffffff168373ffffffffffffffffffffffffffffffffffffffff1603611305576040517f08c379a00000000000000000000000000000000000000000000000000000000081526004016112fc90612e32565b60405180910390fd5b600061130f611122565b9050600061131c84611ab1565b9050600061132984611ab1565b9050611349838760008585604051806020016040528060008152506118ca565b600080600087815260200190815260200160002060008873ffffffffffffffffffffffffffffffffffffffff1673ffffffffffffffffffffffffffffffffffffffff168152602001908152602001600020549050848110156113e0576040517f08c379a00000000000000000000000000000000000000000000000000000000081526004016113d790612ec4565b60405180910390fd5b84810360008088815260200190815260200160002060008973ffffffffffffffffffffffffffffffffffffffff1673ffffffffffffffffffffffffffffffffffffffff16815260200190815260200160002081905550600073ffffffffffffffffffffffffffffffffffffffff168773ffffffffffffffffffffffffffffffffffffffff168573ffffffffffffffffffffffffffffffffffffffff167fc3d58168c5ae7397731d063d5bbf3d657854427343f4c083240f7aacaa2d0f6289896040516114ad929190612d05565b60405180910390a46114d3848860008686604051806020016040528060008152506118d2565b50505050505050565b600073ffffffffffffffffffffffffffffffffffffffff168473ffffffffffffffffffffffffffffffffffffffff160361154b576040517f08c379a000000000000000000000000000000000000000000000000000000000815260040161154290612a1e565b60405180910390fd5b6000611555611122565b9050600061156285611ab1565b9050600061156f85611ab1565b905061157f8389898585896118ca565b600080600088815260200190815260200160002060008a73ffffffffffffffffffffffffffffffffffffffff1673ffffffffffffffffffffffffffffffffffffffff16815260200190815260200160002054905085811015611616576040517f08c379a000000000000000000000000000000000000000000000000000000000815260040161160d90612adf565b60405180910390fd5b85810360008089815260200190815260200160002060008b73ffffffffffffffffffffffffffffffffffffffff1673ffffffffffffffffffffffffffffffffffffffff168152602001908152602001600020819055508560008089815260200190815260200160002060008a73ffffffffffffffffffffffffffffffffffffffff1673ffffffffffffffffffffffffffffffffffffffff16815260200190815260200160002060008282546116cb9190612b2e565b925050819055508773ffffffffffffffffffffffffffffffffffffffff168973ffffffffffffffffffffffffffffffffffffffff168573ffffffffffffffffffffffffffffffffffffffff167fc3d58168c5ae7397731d063d5bbf3d657854427343f4c083240f7aacaa2d0f628a8a604051611748929190612d05565b60405180910390a461175e848a8a86868a6118d2565b61176c848a8a8a8a8a611b2b565b505050505050505050565b600080600090507a184f03e93ff9f4daa797ed6e38ed64bf6a1f01000000000000000083106117d5577a184f03e93ff9f4daa797ed6e38ed64bf6a1f01000000000000000083816117cb576117ca6128eb565b5b0492506040810190505b6d04ee2d6d415b85acef81000000008310611812576d04ee2d6d415b85acef81000000008381611808576118076128eb565b5b0492506020810190505b662386f26fc10000831061184157662386f26fc100008381611837576118366128eb565b5b0492506010810190505b6305f5e100831061186a576305f5e10083816118605761185f6128eb565b5b0492506008810190505b612710831061188f576127108381611885576118846128eb565b5b0492506004810190505b606483106118b257606483816118a8576118a76128eb565b5b0492506002810190505b600a83106118c1576001810190505b80915050919050565b505050505050565b505050505050565b6118f98473ffffffffffffffffffffffffffffffffffffffff16611d02565b15611aa9578373ffffffffffffffffffffffffffffffffffffffff1663bc197c8187878686866040518663ffffffff1660e01b815260040161193f959493929190612f48565b6020604051808303816000875af192505050801561197b57506040513d601f19601f820116820180604052508101906119789190612fc5565b60015b611a2057611987612fff565b806308c379a0036119e3575061199b613021565b806119a657506119e5565b806040517f08c379a00000000000000000000000000000000000000000000000000000000081526004016119da9190611faf565b60405180910390fd5b505b6040517f08c379a0000000000000000000000000000000000000000000000000000000008152600401611a1790613123565b60405180910390fd5b63bc197c8160e01b7bffffffffffffffffffffffffffffffffffffffffffffffffffffffff1916817bffffffffffffffffffffffffffffffffffffffffffffffffffffffff191614611aa7576040517f08c379a0000000000000000000000000000000000000000000000000000000008152600401611a9e906131b5565b60405180910390fd5b505b505050505050565b60606000600167ffffffffffffffff811115611ad057611acf611fd6565b5b604051908082528060200260200182016040528015611afe5781602001602082028036833780820191505090505b5090508281600081518110611b1657611b15612a3e565b5b60200260200101818152505080915050919050565b611b4a8473ffffffffffffffffffffffffffffffffffffffff16611d02565b15611cfa578373ffffffffffffffffffffffffffffffffffffffff1663f23a6e6187878686866040518663ffffffff1660e01b8152600401611b909594939291906131d5565b6020604051808303816000875af1925050508015611bcc57506040513d601f19601f82011682018060405250810190611bc99190612fc5565b60015b611c7157611bd8612fff565b806308c379a003611c345750611bec613021565b80611bf75750611c36565b806040517f08c379a0000000000000000000000000000000000000000000000000000000008152600401611c2b9190611faf565b60405180910390fd5b505b6040517f08c379a0000000000000000000000000000000000000000000000000000000008152600401611c6890613123565b60405180910390fd5b63f23a6e6160e01b7bffffffffffffffffffffffffffffffffffffffffffffffffffffffff1916817bffffffffffffffffffffffffffffffffffffffffffffffffffffffff191614611cf8576040517f08c379a0000000000000000000000000000000000000000000000000000000008152600401611cef906131b5565b60405180910390fd5b505b505050505050565b6000808273ffffffffffffffffffffffffffffffffffffffff163b119050919050565b6000604051905090565b600080fd5b600080fd5b600073ffffffffffffffffffffffffffffffffffffffff82169050919050565b6000611d6482611d39565b9050919050565b611d7481611d59565b8114611d7f57600080fd5b50565b600081359050611d9181611d6b565b92915050565b6000819050919050565b611daa81611d97565b8114611db557600080fd5b50565b600081359050611dc781611da1565b92915050565b60008060408385031215611de457611de3611d2f565b5b6000611df285828601611d82565b9250506020611e0385828601611db8565b9150509250929050565b611e1681611d97565b82525050565b6000602082019050611e316000830184611e0d565b92915050565b60007fffffffff0000000000000000000000000000000000000000000000000000000082169050919050565b611e6c81611e37565b8114611e7757600080fd5b50565b600081359050611e8981611e63565b92915050565b600060208284031215611ea557611ea4611d2f565b5b6000611eb384828501611e7a565b91505092915050565b60008115159050919050565b611ed181611ebc565b82525050565b6000602082019050611eec6000830184611ec8565b92915050565b600060208284031215611f0857611f07611d2f565b5b6000611f1684828501611db8565b91505092915050565b600081519050919050565b600082825260208201905092915050565b60005b83811015611f59578082015181840152602081019050611f3e565b60008484015250505050565b6000601f19601f8301169050919050565b6000611f8182611f1f565b611f8b8185611f2a565b9350611f9b818560208601611f3b565b611fa481611f65565b840191505092915050565b60006020820190508181036000830152611fc98184611f76565b905092915050565b600080fd5b7f4e487b7100000000000000000000000000000000000000000000000000000000600052604160045260246000fd5b61200e82611f65565b810181811067ffffffffffffffff8211171561202d5761202c611fd6565b5b80604052505050565b6000612040611d25565b905061204c8282612005565b919050565b600067ffffffffffffffff82111561206c5761206b611fd6565b5b602082029050602081019050919050565b600080fd5b600061209561209084612051565b612036565b905080838252602082019050602084028301858111156120b8576120b761207d565b5b835b818110156120e157806120cd8882611db8565b8452602084019350506020810190506120ba565b5050509392505050565b600082601f830112612100576120ff611fd1565b5b8135612110848260208601612082565b91505092915050565b600080fd5b600067ffffffffffffffff82111561213957612138611fd6565b5b61214282611f65565b9050602081019050919050565b82818337600083830152505050565b600061217161216c8461211e565b612036565b90508281526020810184848401111561218d5761218c612119565b5b61219884828561214f565b509392505050565b600082601f8301126121b5576121b4611fd1565b5b81356121c584826020860161215e565b91505092915050565b600080600080600060a086880312156121ea576121e9611d2f565b5b60006121f888828901611d82565b955050602061220988828901611d82565b945050604086013567ffffffffffffffff81111561222a57612229611d34565b5b612236888289016120eb565b935050606086013567ffffffffffffffff81111561225757612256611d34565b5b612263888289016120eb565b925050608086013567ffffffffffffffff81111561228457612283611d34565b5b612290888289016121a0565b9150509295509295909350565b600067ffffffffffffffff8211156122b8576122b7611fd6565b5b602082029050602081019050919050565b60006122dc6122d78461229d565b612036565b905080838252602082019050602084028301858111156122ff576122fe61207d565b5b835b8181101561232857806123148882611d82565b845260208401935050602081019050612301565b5050509392505050565b600082601f83011261234757612346611fd1565b5b81356123578482602086016122c9565b91505092915050565b6000806040838503121561237757612376611d2f565b5b600083013567ffffffffffffffff81111561239557612394611d34565b5b6123a185828601612332565b925050602083013567ffffffffffffffff8111156123c2576123c1611d34565b5b6123ce858286016120eb565b9150509250929050565b600081519050919050565b600082825260208201905092915050565b6000819050602082019050919050565b61240d81611d97565b82525050565b600061241f8383612404565b60208301905092915050565b6000602082019050919050565b6000612443826123d8565b61244d81856123e3565b9350612458836123f4565b8060005b838110156124895781516124708882612413565b975061247b8361242b565b92505060018101905061245c565b5085935050505092915050565b600060208201905081810360008301526124b08184612438565b905092915050565b6000806000606084860312156124d1576124d0611d2f565b5b60006124df86828701611d82565b93505060206124f086828701611db8565b925050604061250186828701611db8565b9150509250925092565b61251481611ebc565b811461251f57600080fd5b50565b6000813590506125318161250b565b92915050565b6000806040838503121561254e5761254d611d2f565b5b600061255c85828601611d82565b925050602061256d85828601612522565b9150509250929050565b600061258282611d39565b9050919050565b61259281612577565b82525050565b60006020820190506125ad6000830184612589565b92915050565b600080604083850312156125ca576125c9611d2f565b5b60006125d885828601611d82565b92505060206125e985828601611d82565b9150509250929050565b600080600080600060a0868803121561260f5761260e611d2f565b5b600061261d88828901611d82565b955050602061262e88828901611d82565b945050604061263f88828901611db8565b935050606061265088828901611db8565b925050608086013567ffffffffffffffff81111561267157612670611d34565b5b61267d888289016121a0565b9150509295509295909350565b7f4f6e6c792074686520636f6e7472616374206f776e65722063616e207065726660008201527f6f726d2074686973206f7065726174696f6e2e2054686973207472616e73616360208201527f74696f6e2077696c6c2062652072657665727465642e00000000000000000000604082015250565b600061270c605683611f2a565b91506127178261268a565b606082019050919050565b6000602082019050818103600083015261273b816126ff565b9050919050565b600081905092915050565b600061275882611f1f565b6127628185612742565b9350612772818560208601611f3b565b80840191505092915050565b7f2e6a736f6e000000000000000000000000000000000000000000000000000000600082015250565b60006127b4600583612742565b91506127bf8261277e565b600582019050919050565b60006127d6828561274d565b91506127e2828461274d565b91506127ed826127a7565b91508190509392505050565b7f455243313135353a2061646472657373207a65726f206973206e6f742061207660008201527f616c6964206f776e657200000000000000000000000000000000000000000000602082015250565b6000612855602a83611f2a565b9150612860826127f9565b604082019050919050565b6000602082019050818103600083015261288481612848565b9050919050565b7f4e487b7100000000000000000000000000000000000000000000000000000000600052602260045260246000fd5b600060028204905060018216806128d257607f821691505b6020821081036128e5576128e461288b565b5b50919050565b7f4e487b7100000000000000000000000000000000000000000000000000000000600052601260045260246000fd5b7f455243313135353a2069647320616e6420616d6f756e7473206c656e6774682060008201527f6d69736d61746368000000000000000000000000000000000000000000000000602082015250565b6000612976602883611f2a565b91506129818261291a565b604082019050919050565b600060208201905081810360008301526129a581612969565b9050919050565b7f455243313135353a207472616e7366657220746f20746865207a65726f20616460008201527f6472657373000000000000000000000000000000000000000000000000000000602082015250565b6000612a08602583611f2a565b9150612a13826129ac565b604082019050919050565b60006020820190508181036000830152612a37816129fb565b9050919050565b7f4e487b7100000000000000000000000000000000000000000000000000000000600052603260045260246000fd5b7f455243313135353a20696e73756666696369656e742062616c616e636520666f60008201527f72207472616e7366657200000000000000000000000000000000000000000000602082015250565b6000612ac9602a83611f2a565b9150612ad482612a6d565b604082019050919050565b60006020820190508181036000830152612af881612abc565b9050919050565b7f4e487b7100000000000000000000000000000000000000000000000000000000600052601160045260246000fd5b6000612b3982611d97565b9150612b4483611d97565b9250828201905080821115612b5c57612b5b612aff565b5b92915050565b6000612b6d82611d97565b91507fffffffffffffffffffffffffffffffffffffffffffffffffffffffffffffffff8203612b9f57612b9e612aff565b5b600182019050919050565b60006040820190508181036000830152612bc48185612438565b90508181036020830152612bd88184612438565b90509392505050565b7f455243313135353a206163636f756e747320616e6420696473206c656e67746860008201527f206d69736d617463680000000000000000000000000000000000000000000000602082015250565b6000612c3d602983611f2a565b9150612c4882612be1565b604082019050919050565b60006020820190508181036000830152612c6c81612c30565b9050919050565b7f455243313135353a206d696e7420746f20746865207a65726f2061646472657360008201527f7300000000000000000000000000000000000000000000000000000000000000602082015250565b6000612ccf602183611f2a565b9150612cda82612c73565b604082019050919050565b60006020820190508181036000830152612cfe81612cc2565b9050919050565b6000604082019050612d1a6000830185611e0d565b612d276020830184611e0d565b9392505050565b7f455243313135353a2073657474696e6720617070726f76616c2073746174757360008201527f20666f722073656c660000000000000000000000000000000000000000000000602082015250565b6000612d8a602983611f2a565b9150612d9582612d2e565b604082019050919050565b60006020820190508181036000830152612db981612d7d565b9050919050565b7f455243313135353a206275726e2066726f6d20746865207a65726f206164647260008201527f6573730000000000000000000000000000000000000000000000000000000000602082015250565b6000612e1c602383611f2a565b9150612e2782612dc0565b604082019050919050565b60006020820190508181036000830152612e4b81612e0f565b9050919050565b7f455243313135353a206275726e20616d6f756e7420657863656564732062616c60008201527f616e636500000000000000000000000000000000000000000000000000000000602082015250565b6000612eae602483611f2a565b9150612eb982612e52565b604082019050919050565b60006020820190508181036000830152612edd81612ea1565b9050919050565b612eed81611d59565b82525050565b600081519050919050565b600082825260208201905092915050565b6000612f1a82612ef3565b612f248185612efe565b9350612f34818560208601611f3b565b612f3d81611f65565b840191505092915050565b600060a082019050612f5d6000830188612ee4565b612f6a6020830187612ee4565b8181036040830152612f7c8186612438565b90508181036060830152612f908185612438565b90508181036080830152612fa48184612f0f565b90509695505050505050565b600081519050612fbf81611e63565b92915050565b600060208284031215612fdb57612fda611d2f565b5b6000612fe984828501612fb0565b91505092915050565b60008160e01c9050919050565b600060033d111561301e5760046000803e61301b600051612ff2565b90505b90565b600060443d106130ae57613033611d25565b60043d036004823e80513d602482011167ffffffffffffffff8211171561305b5750506130ae565b808201805167ffffffffffffffff81111561307957505050506130ae565b80602083010160043d0385018111156130965750505050506130ae565b6130a582602001850186612005565b82955050505050505b90565b7f455243313135353a207472616e7366657220746f206e6f6e2d4552433131353560008201527f526563656976657220696d706c656d656e746572000000000000000000000000602082015250565b600061310d603483611f2a565b9150613118826130b1565b604082019050919050565b6000602082019050818103600083015261313c81613100565b9050919050565b7f455243313135353a204552433131353552656365697665722072656a6563746560008201527f6420746f6b656e73000000000000000000000000000000000000000000000000602082015250565b600061319f602883611f2a565b91506131aa82613143565b604082019050919050565b600060208201905081810360008301526131ce81613192565b9050919050565b600060a0820190506131ea6000830188612ee4565b6131f76020830187612ee4565b6132046040830186611e0d565b6132116060830185611e0d565b81810360808301526132238184612f0f565b9050969550505050505056fea264697066735822122099b994cd03740b18fa77641289afebe9c72e94dc7e9fe88e85ddb90457cdccac64736f6c63430008110033",
  "linkReferences": {},
  "deployedLinkReferences": {}
}