{
  "_format": "hh-sol-artifact-1",
  "contractName": "NasaFT",
  "sourceName": "contracts/NasaFT.sol",
  "abi": [
    {
      "inputs": [],
      "stateMutability": "nonpayable",
      "type": "constructor"
    },
    {
      "anonymous": false,
      "inputs": [
        {
          "indexed": true,
          "internalType": "address",
          "name": "account",
          "type": "address"
        },
        {
          "indexed": true,
          "internalType": "address",
          "name": "operator",
          "type": "address"
        },
        {
          "indexed": false,
          "internalType": "bool",
          "name": "approved",
          "type": "bool"
        }
      ],
      "name": "ApprovalForAll",
      "type": "event"
    },
    {
      "anonymous": false,
      "inputs": [
        {
          "indexed": true,
          "internalType": "address",
          "name": "operator",
          "type": "address"
        },
        {
          "indexed": true,
          "internalType": "address",
          "name": "from",
          "type": "address"
        },
        {
          "indexed": true,
          "internalType": "address",
          "name": "to",
          "type": "address"
        },
        {
          "indexed": false,
          "internalType": "uint256[]",
          "name": "ids",
          "type": "uint256[]"
        },
        {
          "indexed": false,
          "internalType": "uint256[]",
          "name": "values",
          "type": "uint256[]"
        }
      ],
      "name": "TransferBatch",
      "type": "event"
    },
    {
      "anonymous": false,
      "inputs": [
        {
          "indexed": true,
          "internalType": "address",
          "name": "operator",
          "type": "address"
        },
        {
          "indexed": true,
          "internalType": "address",
          "name": "from",
          "type": "address"
        },
        {
          "indexed": true,
          "internalType": "address",
          "name": "to",
          "type": "address"
        },
        {
          "indexed": false,
          "internalType": "uint256",
          "name": "id",
          "type": "uint256"
        },
        {
          "indexed": false,
          "internalType": "uint256",
          "name": "value",
          "type": "uint256"
        }
      ],
      "name": "TransferSingle",
      "type": "event"
    },
    {
      "anonymous": false,
      "inputs": [
        {
          "indexed": false,
          "internalType": "string",
          "name": "value",
          "type": "string"
        },
        {
          "indexed": true,
          "internalType": "uint256",
          "name": "id",
          "type": "uint256"
        }
      ],
      "name": "URI",
      "type": "event"
    },
    {
      "inputs": [
        {
          "internalType": "address",
          "name": "account",
          "type": "address"
        },
        {
          "internalType": "uint256",
          "name": "id",
          "type": "uint256"
        }
      ],
      "name": "balanceOf",
      "outputs": [
        {
          "internalType": "uint256",
          "name": "",
          "type": "uint256"
        }
      ],
      "stateMutability": "view",
      "type": "function"
    },
    {
      "inputs": [
        {
          "internalType": "address[]",
          "name": "accounts",
          "type": "address[]"
        },
        {
          "internalType": "uint256[]",
          "name": "ids",
          "type": "uint256[]"
        }
      ],
      "name": "balanceOfBatch",
      "outputs": [
        {
          "internalType": "uint256[]",
          "name": "",
          "type": "uint256[]"
        }
      ],
      "stateMutability": "view",
      "type": "function"
    },
    {
      "inputs": [],
      "name": "contractOwner",
      "outputs": [
        {
          "internalType": "address payable",
          "name": "",
          "type": "address"
        }
      ],
      "stateMutability": "view",
      "type": "function"
    },
    {
      "inputs": [
        {
          "internalType": "address",
          "name": "account",
          "type": "address"
        },
        {
          "internalType": "address",
          "name": "operator",
          "type": "address"
        }
      ],
      "name": "isApprovedForAll",
      "outputs": [
        {
          "internalType": "bool",
          "name": "",
          "type": "bool"
        }
      ],
      "stateMutability": "view",
      "type": "function"
    },
    {
      "inputs": [
        {
          "internalType": "uint256",
          "name": "copies",
          "type": "uint256"
        }
      ],
      "name": "mintTokens",
      "outputs": [],
      "stateMutability": "nonpayable",
      "type": "function"
    },
    {
      "inputs": [
        {
          "internalType": "address",
          "name": "from",
          "type": "address"
        },
        {
          "internalType": "address",
          "name": "to",
          "type": "address"
        },
        {
          "internalType": "uint256[]",
          "name": "ids",
          "type": "uint256[]"
        },
        {
          "internalType": "uint256[]",
          "name": "amounts",
          "type": "uint256[]"
        },
        {
          "internalType": "bytes",
          "name": "data",
          "type": "bytes"
        }
      ],
      "name": "safeBatchTransferFrom",
      "outputs": [],
      "stateMutability": "nonpayable",
      "type": "function"
    },
    {
      "inputs": [
        {
          "internalType": "address",
          "name": "from",
          "type": "address"
        },
        {
          "internalType": "address",
          "name": "to",
          "type": "address"
        },
        {
          "internalType": "uint256",
          "name": "id",
          "type": "uint256"
        },
        {
          "internalType": "uint256",
          "name": "amount",
          "type": "uint256"
        },
        {
          "internalType": "bytes",
          "name": "data",
          "type": "bytes"
        }
      ],
      "name": "safeTransferFrom",
      "outputs": [],
      "stateMutability": "nonpayable",
      "type": "function"
    },
    {
      "inputs": [
        {
          "internalType": "address",
          "name": "operator",
          "type": "address"
        },
        {
          "internalType": "bool",
          "name": "approved",
          "type": "bool"
        }
      ],
      "name": "setApprovalForAll",
      "outputs": [],
      "stateMutability": "nonpayable",
      "type": "function"
    },
    {
      "inputs": [
        {
          "internalType": "bytes4",
          "name": "interfaceId",
          "type": "bytes4"
        }
      ],
      "name": "supportsInterface",
      "outputs": [
        {
          "internalType": "bool",
          "name": "",
          "type": "bool"
        }
      ],
      "stateMutability": "view",
      "type": "function"
    },
    {
      "inputs": [
        {
          "internalType": "uint256",
          "name": "id",
          "type": "uint256"
        }
      ],
      "name": "uri",
      "outputs": [
        {
          "internalType": "string",
          "name": "",
          "type": "string"
        }
      ],
      "stateMutability": "view",
      "type": "function"
    }
  ],
  "bytecode": "0x60806040523480156200001157600080fd5b506040518060400160405280601e81526020017f68747470733a2f2f67616d652e6578616d706c652f6170692f6974656d2f00008152506200005981620000a160201b60201c565b5033600360006101000a81548173ffffffffffffffffffffffffffffffffffffffff021916908373ffffffffffffffffffffffffffffffffffffffff16021790555062000417565b8060029081620000b2919062000330565b5050565b600081519050919050565b7f4e487b7100000000000000000000000000000000000000000000000000000000600052604160045260246000fd5b7f4e487b7100000000000000000000000000000000000000000000000000000000600052602260045260246000fd5b600060028204905060018216806200013857607f821691505b6020821081036200014e576200014d620000f0565b5b50919050565b60008190508160005260206000209050919050565b60006020601f8301049050919050565b600082821b905092915050565b600060088302620001b87fffffffffffffffffffffffffffffffffffffffffffffffffffffffffffffffff8262000179565b620001c4868362000179565b95508019841693508086168417925050509392505050565b6000819050919050565b6000819050919050565b6000620002116200020b6200020584620001dc565b620001e6565b620001dc565b9050919050565b6000819050919050565b6200022d83620001f0565b620002456200023c8262000218565b84845462000186565b825550505050565b600090565b6200025c6200024d565b6200026981848462000222565b505050565b5b8181101562000291576200028560008262000252565b6001810190506200026f565b5050565b601f821115620002e057620002aa8162000154565b620002b58462000169565b81016020851015620002c5578190505b620002dd620002d48562000169565b8301826200026e565b50505b505050565b600082821c905092915050565b60006200030560001984600802620002e5565b1980831691505092915050565b6000620003208383620002f2565b9150826002028217905092915050565b6200033b82620000b6565b67ffffffffffffffff811115620003575762000356620000c1565b5b6200036382546200011f565b6200037082828562000295565b600060209050601f831160018114620003a8576000841562000393578287015190505b6200039f858262000312565b8655506200040f565b601f198416620003b88662000154565b60005b82811015620003e257848901518255600182019150602085019450602081019050620003bb565b86831015620004025784890151620003fe601f891682620002f2565b8355505b6001600288020188555050505b505050505050565b612e1780620004276000396000f3fe608060405234801561001057600080fd5b506004361061009d5760003560e01c806397304ced1161006657806397304ced1461017e578063a22cb4651461019a578063ce606ee0146101b6578063e985e9c5146101d4578063f242432a146102045761009d565b8062fdd58e146100a257806301ffc9a7146100d25780630e89341c146101025780632eb2c2d6146101325780634e1273f41461014e575b600080fd5b6100bc60048036038101906100b79190611af6565b610220565b6040516100c99190611b45565b60405180910390f35b6100ec60048036038101906100e79190611bb8565b6102c4565b6040516100f99190611c00565b60405180910390f35b61011c60048036038101906101179190611c1b565b6103a6565b6040516101299190611cd8565b60405180910390f35b61014c60048036038101906101479190611ef7565b610471565b005b61016860048036038101906101639190612089565b610515565b60405161017591906121bf565b60405180910390f35b61019860048036038101906101939190611c1b565b6105b9565b005b6101b460048036038101906101af919061220d565b61069f565b005b6101be6106b5565b6040516101cb919061226e565b60405180910390f35b6101ee60048036038101906101e99190612289565b6106db565b6040516101fb9190611c00565b60405180910390f35b61021e600480360381019061021991906122c9565b61076f565b005b6000600360009054906101000a900473ffffffffffffffffffffffffffffffffffffffff1673ffffffffffffffffffffffffffffffffffffffff163373ffffffffffffffffffffffffffffffffffffffff16146102b2576040517f08c379a00000000000000000000000000000000000000000000000000000000081526004016102a9906123f8565b60405180910390fd5b6102bc8383610813565b905092915050565b60007fd9b67a26000000000000000000000000000000000000000000000000000000007bffffffffffffffffffffffffffffffffffffffffffffffffffffffff1916827bffffffffffffffffffffffffffffffffffffffffffffffffffffffff1916148061038f57507f0e89341c000000000000000000000000000000000000000000000000000000007bffffffffffffffffffffffffffffffffffffffffffffffffffffffff1916827bffffffffffffffffffffffffffffffffffffffffffffffffffffffff1916145b8061039f575061039e826108db565b5b9050919050565b6060600360009054906101000a900473ffffffffffffffffffffffffffffffffffffffff1673ffffffffffffffffffffffffffffffffffffffff163373ffffffffffffffffffffffffffffffffffffffff1614610438576040517f08c379a000000000000000000000000000000000000000000000000000000000815260040161042f906123f8565b60405180910390fd5b61044182610945565b61044a836109d9565b60405160200161045b9291906124a0565b6040516020818303038152906040529050919050565b600360009054906101000a900473ffffffffffffffffffffffffffffffffffffffff1673ffffffffffffffffffffffffffffffffffffffff163373ffffffffffffffffffffffffffffffffffffffff1614610501576040517f08c379a00000000000000000000000000000000000000000000000000000000081526004016104f8906123f8565b60405180910390fd5b61050e8585858585610aa7565b5050505050565b6060600360009054906101000a900473ffffffffffffffffffffffffffffffffffffffff1673ffffffffffffffffffffffffffffffffffffffff163373ffffffffffffffffffffffffffffffffffffffff16146105a7576040517f08c379a000000000000000000000000000000000000000000000000000000000815260040161059e906123f8565b60405180910390fd5b6105b18383610dc8565b905092915050565b600360009054906101000a900473ffffffffffffffffffffffffffffffffffffffff1673ffffffffffffffffffffffffffffffffffffffff163373ffffffffffffffffffffffffffffffffffffffff1614610649576040517f08c379a0000000000000000000000000000000000000000000000000000000008152600401610640906123f8565b60405180910390fd5b61069c600360009054906101000a900473ffffffffffffffffffffffffffffffffffffffff1660046000815480929190610682906124fe565b919050558360405180602001604052806000815250610ee1565b50565b6106b16106aa611091565b8383611099565b5050565b600360009054906101000a900473ffffffffffffffffffffffffffffffffffffffff1681565b6000600160008473ffffffffffffffffffffffffffffffffffffffff1673ffffffffffffffffffffffffffffffffffffffff16815260200190815260200160002060008373ffffffffffffffffffffffffffffffffffffffff1673ffffffffffffffffffffffffffffffffffffffff16815260200190815260200160002060009054906101000a900460ff16905092915050565b600360009054906101000a900473ffffffffffffffffffffffffffffffffffffffff1673ffffffffffffffffffffffffffffffffffffffff163373ffffffffffffffffffffffffffffffffffffffff16146107ff576040517f08c379a00000000000000000000000000000000000000000000000000000000081526004016107f6906123f8565b60405180910390fd5b61080c8585858585611205565b5050505050565b60008073ffffffffffffffffffffffffffffffffffffffff168373ffffffffffffffffffffffffffffffffffffffff1603610883576040517f08c379a000000000000000000000000000000000000000000000000000000000815260040161087a906125b8565b60405180910390fd5b60008083815260200190815260200160002060008473ffffffffffffffffffffffffffffffffffffffff1673ffffffffffffffffffffffffffffffffffffffff16815260200190815260200160002054905092915050565b60007f01ffc9a7000000000000000000000000000000000000000000000000000000007bffffffffffffffffffffffffffffffffffffffffffffffffffffffff1916827bffffffffffffffffffffffffffffffffffffffffffffffffffffffff1916149050919050565b60606002805461095490612607565b80601f016020809104026020016040519081016040528092919081815260200182805461098090612607565b80156109cd5780601f106109a2576101008083540402835291602001916109cd565b820191906000526020600020905b8154815290600101906020018083116109b057829003601f168201915b50505050509050919050565b6060600060016109e8846114a0565b01905060008167ffffffffffffffff811115610a0757610a06611cff565b5b6040519080825280601f01601f191660200182016040528015610a395781602001600182028036833780820191505090505b509050600082602001820190505b600115610a9c578080600190039150507f3031323334353637383961626364656600000000000000000000000000000000600a86061a8153600a8581610a9057610a8f612638565b5b04945060008503610a47575b819350505050919050565b8151835114610aeb576040517f08c379a0000000000000000000000000000000000000000000000000000000008152600401610ae2906126d9565b60405180910390fd5b600073ffffffffffffffffffffffffffffffffffffffff168473ffffffffffffffffffffffffffffffffffffffff1603610b5a576040517f08c379a0000000000000000000000000000000000000000000000000000000008152600401610b519061276b565b60405180910390fd5b6000610b64611091565b9050610b748187878787876115f3565b60005b8451811015610d25576000858281518110610b9557610b9461278b565b5b602002602001015190506000858381518110610bb457610bb361278b565b5b60200260200101519050600080600084815260200190815260200160002060008b73ffffffffffffffffffffffffffffffffffffffff1673ffffffffffffffffffffffffffffffffffffffff16815260200190815260200160002054905081811015610c55576040517f08c379a0000000000000000000000000000000000000000000000000000000008152600401610c4c9061282c565b60405180910390fd5b81810360008085815260200190815260200160002060008c73ffffffffffffffffffffffffffffffffffffffff1673ffffffffffffffffffffffffffffffffffffffff168152602001908152602001600020819055508160008085815260200190815260200160002060008b73ffffffffffffffffffffffffffffffffffffffff1673ffffffffffffffffffffffffffffffffffffffff1681526020019081526020016000206000828254610d0a919061284c565b9250508190555050505080610d1e906124fe565b9050610b77565b508473ffffffffffffffffffffffffffffffffffffffff168673ffffffffffffffffffffffffffffffffffffffff168273ffffffffffffffffffffffffffffffffffffffff167f4a39dc06d4c0dbc64b70af90fd698a233a518aa5d07e595d983b8c0526c8f7fb8787604051610d9c929190612880565b60405180910390a4610db28187878787876115fb565b610dc0818787878787611603565b505050505050565b60608151835114610e0e576040517f08c379a0000000000000000000000000000000000000000000000000000000008152600401610e0590612929565b60405180910390fd5b6000835167ffffffffffffffff811115610e2b57610e2a611cff565b5b604051908082528060200260200182016040528015610e595781602001602082028036833780820191505090505b50905060005b8451811015610ed657610ea6858281518110610e7e57610e7d61278b565b5b6020026020010151858381518110610e9957610e9861278b565b5b6020026020010151610220565b828281518110610eb957610eb861278b565b5b60200260200101818152505080610ecf906124fe565b9050610e5f565b508091505092915050565b600073ffffffffffffffffffffffffffffffffffffffff168473ffffffffffffffffffffffffffffffffffffffff1603610f50576040517f08c379a0000000000000000000000000000000000000000000000000000000008152600401610f47906129bb565b60405180910390fd5b6000610f5a611091565b90506000610f67856117da565b90506000610f74856117da565b9050610f85836000898585896115f3565b8460008088815260200190815260200160002060008973ffffffffffffffffffffffffffffffffffffffff1673ffffffffffffffffffffffffffffffffffffffff1681526020019081526020016000206000828254610fe4919061284c565b925050819055508673ffffffffffffffffffffffffffffffffffffffff16600073ffffffffffffffffffffffffffffffffffffffff168473ffffffffffffffffffffffffffffffffffffffff167fc3d58168c5ae7397731d063d5bbf3d657854427343f4c083240f7aacaa2d0f6289896040516110629291906129db565b60405180910390a4611079836000898585896115fb565b61108883600089898989611854565b50505050505050565b600033905090565b8173ffffffffffffffffffffffffffffffffffffffff168373ffffffffffffffffffffffffffffffffffffffff1603611107576040517f08c379a00000000000000000000000000000000000000000000000000000000081526004016110fe90612a76565b60405180910390fd5b80600160008573ffffffffffffffffffffffffffffffffffffffff1673ffffffffffffffffffffffffffffffffffffffff16815260200190815260200160002060008473ffffffffffffffffffffffffffffffffffffffff1673ffffffffffffffffffffffffffffffffffffffff16815260200190815260200160002060006101000a81548160ff0219169083151502179055508173ffffffffffffffffffffffffffffffffffffffff168373ffffffffffffffffffffffffffffffffffffffff167f17307eab39ab6107e8899845ad3d59bd9653f200f220920489ca2b5937696c31836040516111f89190611c00565b60405180910390a3505050565b600073ffffffffffffffffffffffffffffffffffffffff168473ffffffffffffffffffffffffffffffffffffffff1603611274576040517f08c379a000000000000000000000000000000000000000000000000000000000815260040161126b9061276b565b60405180910390fd5b600061127e611091565b9050600061128b856117da565b90506000611298856117da565b90506112a88389898585896115f3565b600080600088815260200190815260200160002060008a73ffffffffffffffffffffffffffffffffffffffff1673ffffffffffffffffffffffffffffffffffffffff1681526020019081526020016000205490508581101561133f576040517f08c379a00000000000000000000000000000000000000000000000000000000081526004016113369061282c565b60405180910390fd5b85810360008089815260200190815260200160002060008b73ffffffffffffffffffffffffffffffffffffffff1673ffffffffffffffffffffffffffffffffffffffff168152602001908152602001600020819055508560008089815260200190815260200160002060008a73ffffffffffffffffffffffffffffffffffffffff1673ffffffffffffffffffffffffffffffffffffffff16815260200190815260200160002060008282546113f4919061284c565b925050819055508773ffffffffffffffffffffffffffffffffffffffff168973ffffffffffffffffffffffffffffffffffffffff168573ffffffffffffffffffffffffffffffffffffffff167fc3d58168c5ae7397731d063d5bbf3d657854427343f4c083240f7aacaa2d0f628a8a6040516114719291906129db565b60405180910390a4611487848a8a86868a6115fb565b611495848a8a8a8a8a611854565b505050505050505050565b600080600090507a184f03e93ff9f4daa797ed6e38ed64bf6a1f01000000000000000083106114fe577a184f03e93ff9f4daa797ed6e38ed64bf6a1f01000000000000000083816114f4576114f3612638565b5b0492506040810190505b6d04ee2d6d415b85acef8100000000831061153b576d04ee2d6d415b85acef8100000000838161153157611530612638565b5b0492506020810190505b662386f26fc10000831061156a57662386f26fc1000083816115605761155f612638565b5b0492506010810190505b6305f5e1008310611593576305f5e100838161158957611588612638565b5b0492506008810190505b61271083106115b85761271083816115ae576115ad612638565b5b0492506004810190505b606483106115db57606483816115d1576115d0612638565b5b0492506002810190505b600a83106115ea576001810190505b80915050919050565b505050505050565b505050505050565b6116228473ffffffffffffffffffffffffffffffffffffffff16611a2b565b156117d2578373ffffffffffffffffffffffffffffffffffffffff1663bc197c8187878686866040518663ffffffff1660e01b8152600401611668959493929190612afa565b6020604051808303816000875af19250505080156116a457506040513d601f19601f820116820180604052508101906116a19190612b77565b60015b611749576116b0612bb1565b806308c379a00361170c57506116c4612bd3565b806116cf575061170e565b806040517f08c379a00000000000000000000000000000000000000000000000000000000081526004016117039190611cd8565b60405180910390fd5b505b6040517f08c379a000000000000000000000000000000000000000000000000000000000815260040161174090612cd5565b60405180910390fd5b63bc197c8160e01b7bffffffffffffffffffffffffffffffffffffffffffffffffffffffff1916817bffffffffffffffffffffffffffffffffffffffffffffffffffffffff1916146117d0576040517f08c379a00000000000000000000000000000000000000000000000000000000081526004016117c790612d67565b60405180910390fd5b505b505050505050565b60606000600167ffffffffffffffff8111156117f9576117f8611cff565b5b6040519080825280602002602001820160405280156118275781602001602082028036833780820191505090505b509050828160008151811061183f5761183e61278b565b5b60200260200101818152505080915050919050565b6118738473ffffffffffffffffffffffffffffffffffffffff16611a2b565b15611a23578373ffffffffffffffffffffffffffffffffffffffff1663f23a6e6187878686866040518663ffffffff1660e01b81526004016118b9959493929190612d87565b6020604051808303816000875af19250505080156118f557506040513d601f19601f820116820180604052508101906118f29190612b77565b60015b61199a57611901612bb1565b806308c379a00361195d5750611915612bd3565b80611920575061195f565b806040517f08c379a00000000000000000000000000000000000000000000000000000000081526004016119549190611cd8565b60405180910390fd5b505b6040517f08c379a000000000000000000000000000000000000000000000000000000000815260040161199190612cd5565b60405180910390fd5b63f23a6e6160e01b7bffffffffffffffffffffffffffffffffffffffffffffffffffffffff1916817bffffffffffffffffffffffffffffffffffffffffffffffffffffffff191614611a21576040517f08c379a0000000000000000000000000000000000000000000000000000000008152600401611a1890612d67565b60405180910390fd5b505b505050505050565b6000808273ffffffffffffffffffffffffffffffffffffffff163b119050919050565b6000604051905090565b600080fd5b600080fd5b600073ffffffffffffffffffffffffffffffffffffffff82169050919050565b6000611a8d82611a62565b9050919050565b611a9d81611a82565b8114611aa857600080fd5b50565b600081359050611aba81611a94565b92915050565b6000819050919050565b611ad381611ac0565b8114611ade57600080fd5b50565b600081359050611af081611aca565b92915050565b60008060408385031215611b0d57611b0c611a58565b5b6000611b1b85828601611aab565b9250506020611b2c85828601611ae1565b9150509250929050565b611b3f81611ac0565b82525050565b6000602082019050611b5a6000830184611b36565b92915050565b60007fffffffff0000000000000000000000000000000000000000000000000000000082169050919050565b611b9581611b60565b8114611ba057600080fd5b50565b600081359050611bb281611b8c565b92915050565b600060208284031215611bce57611bcd611a58565b5b6000611bdc84828501611ba3565b91505092915050565b60008115159050919050565b611bfa81611be5565b82525050565b6000602082019050611c156000830184611bf1565b92915050565b600060208284031215611c3157611c30611a58565b5b6000611c3f84828501611ae1565b91505092915050565b600081519050919050565b600082825260208201905092915050565b60005b83811015611c82578082015181840152602081019050611c67565b60008484015250505050565b6000601f19601f8301169050919050565b6000611caa82611c48565b611cb48185611c53565b9350611cc4818560208601611c64565b611ccd81611c8e565b840191505092915050565b60006020820190508181036000830152611cf28184611c9f565b905092915050565b600080fd5b7f4e487b7100000000000000000000000000000000000000000000000000000000600052604160045260246000fd5b611d3782611c8e565b810181811067ffffffffffffffff82111715611d5657611d55611cff565b5b80604052505050565b6000611d69611a4e565b9050611d758282611d2e565b919050565b600067ffffffffffffffff821115611d9557611d94611cff565b5b602082029050602081019050919050565b600080fd5b6000611dbe611db984611d7a565b611d5f565b90508083825260208201905060208402830185811115611de157611de0611da6565b5b835b81811015611e0a5780611df68882611ae1565b845260208401935050602081019050611de3565b5050509392505050565b600082601f830112611e2957611e28611cfa565b5b8135611e39848260208601611dab565b91505092915050565b600080fd5b600067ffffffffffffffff821115611e6257611e61611cff565b5b611e6b82611c8e565b9050602081019050919050565b82818337600083830152505050565b6000611e9a611e9584611e47565b611d5f565b905082815260208101848484011115611eb657611eb5611e42565b5b611ec1848285611e78565b509392505050565b600082601f830112611ede57611edd611cfa565b5b8135611eee848260208601611e87565b91505092915050565b600080600080600060a08688031215611f1357611f12611a58565b5b6000611f2188828901611aab565b9550506020611f3288828901611aab565b945050604086013567ffffffffffffffff811115611f5357611f52611a5d565b5b611f5f88828901611e14565b935050606086013567ffffffffffffffff811115611f8057611f7f611a5d565b5b611f8c88828901611e14565b925050608086013567ffffffffffffffff811115611fad57611fac611a5d565b5b611fb988828901611ec9565b9150509295509295909350565b600067ffffffffffffffff821115611fe157611fe0611cff565b5b602082029050602081019050919050565b600061200561200084611fc6565b611d5f565b9050808382526020820190506020840283018581111561202857612027611da6565b5b835b81811015612051578061203d8882611aab565b84526020840193505060208101905061202a565b5050509392505050565b600082601f8301126120705761206f611cfa565b5b8135612080848260208601611ff2565b91505092915050565b600080604083850312156120a05761209f611a58565b5b600083013567ffffffffffffffff8111156120be576120bd611a5d565b5b6120ca8582860161205b565b925050602083013567ffffffffffffffff8111156120eb576120ea611a5d565b5b6120f785828601611e14565b9150509250929050565b600081519050919050565b600082825260208201905092915050565b6000819050602082019050919050565b61213681611ac0565b82525050565b6000612148838361212d565b60208301905092915050565b6000602082019050919050565b600061216c82612101565b612176818561210c565b93506121818361211d565b8060005b838110156121b2578151612199888261213c565b97506121a483612154565b925050600181019050612185565b5085935050505092915050565b600060208201905081810360008301526121d98184612161565b905092915050565b6121ea81611be5565b81146121f557600080fd5b50565b600081359050612207816121e1565b92915050565b6000806040838503121561222457612223611a58565b5b600061223285828601611aab565b9250506020612243858286016121f8565b9150509250929050565b600061225882611a62565b9050919050565b6122688161224d565b82525050565b6000602082019050612283600083018461225f565b92915050565b600080604083850312156122a05761229f611a58565b5b60006122ae85828601611aab565b92505060206122bf85828601611aab565b9150509250929050565b600080600080600060a086880312156122e5576122e4611a58565b5b60006122f388828901611aab565b955050602061230488828901611aab565b945050604061231588828901611ae1565b935050606061232688828901611ae1565b925050608086013567ffffffffffffffff81111561234757612346611a5d565b5b61235388828901611ec9565b9150509295509295909350565b7f4f6e6c792074686520636f6e7472616374206f776e65722063616e207065726660008201527f6f726d2074686973206f7065726174696f6e2e2054686973207472616e73616360208201527f74696f6e2077696c6c2062652072657665727465642e00000000000000000000604082015250565b60006123e2605683611c53565b91506123ed82612360565b606082019050919050565b60006020820190508181036000830152612411816123d5565b9050919050565b600081905092915050565b600061242e82611c48565b6124388185612418565b9350612448818560208601611c64565b80840191505092915050565b7f2e6a736f6e000000000000000000000000000000000000000000000000000000600082015250565b600061248a600583612418565b915061249582612454565b600582019050919050565b60006124ac8285612423565b91506124b88284612423565b91506124c38261247d565b91508190509392505050565b7f4e487b7100000000000000000000000000000000000000000000000000000000600052601160045260246000fd5b600061250982611ac0565b91507fffffffffffffffffffffffffffffffffffffffffffffffffffffffffffffffff820361253b5761253a6124cf565b5b600182019050919050565b7f455243313135353a2061646472657373207a65726f206973206e6f742061207660008201527f616c6964206f776e657200000000000000000000000000000000000000000000602082015250565b60006125a2602a83611c53565b91506125ad82612546565b604082019050919050565b600060208201905081810360008301526125d181612595565b9050919050565b7f4e487b7100000000000000000000000000000000000000000000000000000000600052602260045260246000fd5b6000600282049050600182168061261f57607f821691505b602082108103612632576126316125d8565b5b50919050565b7f4e487b7100000000000000000000000000000000000000000000000000000000600052601260045260246000fd5b7f455243313135353a2069647320616e6420616d6f756e7473206c656e6774682060008201527f6d69736d61746368000000000000000000000000000000000000000000000000602082015250565b60006126c3602883611c53565b91506126ce82612667565b604082019050919050565b600060208201905081810360008301526126f2816126b6565b9050919050565b7f455243313135353a207472616e7366657220746f20746865207a65726f20616460008201527f6472657373000000000000000000000000000000000000000000000000000000602082015250565b6000612755602583611c53565b9150612760826126f9565b604082019050919050565b6000602082019050818103600083015261278481612748565b9050919050565b7f4e487b7100000000000000000000000000000000000000000000000000000000600052603260045260246000fd5b7f455243313135353a20696e73756666696369656e742062616c616e636520666f60008201527f72207472616e7366657200000000000000000000000000000000000000000000602082015250565b6000612816602a83611c53565b9150612821826127ba565b604082019050919050565b6000602082019050818103600083015261284581612809565b9050919050565b600061285782611ac0565b915061286283611ac0565b925082820190508082111561287a576128796124cf565b5b92915050565b6000604082019050818103600083015261289a8185612161565b905081810360208301526128ae8184612161565b90509392505050565b7f455243313135353a206163636f756e747320616e6420696473206c656e67746860008201527f206d69736d617463680000000000000000000000000000000000000000000000602082015250565b6000612913602983611c53565b915061291e826128b7565b604082019050919050565b6000602082019050818103600083015261294281612906565b9050919050565b7f455243313135353a206d696e7420746f20746865207a65726f2061646472657360008201527f7300000000000000000000000000000000000000000000000000000000000000602082015250565b60006129a5602183611c53565b91506129b082612949565b604082019050919050565b600060208201905081810360008301526129d481612998565b9050919050565b60006040820190506129f06000830185611b36565b6129fd6020830184611b36565b9392505050565b7f455243313135353a2073657474696e6720617070726f76616c2073746174757360008201527f20666f722073656c660000000000000000000000000000000000000000000000602082015250565b6000612a60602983611c53565b9150612a6b82612a04565b604082019050919050565b60006020820190508181036000830152612a8f81612a53565b9050919050565b612a9f81611a82565b82525050565b600081519050919050565b600082825260208201905092915050565b6000612acc82612aa5565b612ad68185612ab0565b9350612ae6818560208601611c64565b612aef81611c8e565b840191505092915050565b600060a082019050612b0f6000830188612a96565b612b1c6020830187612a96565b8181036040830152612b2e8186612161565b90508181036060830152612b428185612161565b90508181036080830152612b568184612ac1565b90509695505050505050565b600081519050612b7181611b8c565b92915050565b600060208284031215612b8d57612b8c611a58565b5b6000612b9b84828501612b62565b91505092915050565b60008160e01c9050919050565b600060033d1115612bd05760046000803e612bcd600051612ba4565b90505b90565b600060443d10612c6057612be5611a4e565b60043d036004823e80513d602482011167ffffffffffffffff82111715612c0d575050612c60565b808201805167ffffffffffffffff811115612c2b5750505050612c60565b80602083010160043d038501811115612c48575050505050612c60565b612c5782602001850186611d2e565b82955050505050505b90565b7f455243313135353a207472616e7366657220746f206e6f6e2d4552433131353560008201527f526563656976657220696d706c656d656e746572000000000000000000000000602082015250565b6000612cbf603483611c53565b9150612cca82612c63565b604082019050919050565b60006020820190508181036000830152612cee81612cb2565b9050919050565b7f455243313135353a204552433131353552656365697665722072656a6563746560008201527f6420746f6b656e73000000000000000000000000000000000000000000000000602082015250565b6000612d51602883611c53565b9150612d5c82612cf5565b604082019050919050565b60006020820190508181036000830152612d8081612d44565b9050919050565b600060a082019050612d9c6000830188612a96565b612da96020830187612a96565b612db66040830186611b36565b612dc36060830185611b36565b8181036080830152612dd58184612ac1565b9050969550505050505056fea2646970667358221220d58c985ec26c2d29930a986d84ca881a802055823e5d9b739e9673fa833e7a8e64736f6c63430008110033",
  "linkReferences": {},
  "deployedLinkReferences": {}
}