{
  "_format": "hh-sol-artifact-1",
  "contractName": "NasaFT",
  "sourceName": "contracts/NasaFT.sol",
  "abi": [
    {
      "inputs": [],
      "stateMutability": "nonpayable",
      "type": "constructor"
    },
    {
      "anonymous": false,
      "inputs": [
        {
          "indexed": true,
          "internalType": "address",
          "name": "account",
          "type": "address"
        },
        {
          "indexed": true,
          "internalType": "address",
          "name": "operator",
          "type": "address"
        },
        {
          "indexed": false,
          "internalType": "bool",
          "name": "approved",
          "type": "bool"
        }
      ],
      "name": "ApprovalForAll",
      "type": "event"
    },
    {
      "anonymous": false,
      "inputs": [
        {
          "indexed": true,
          "internalType": "address",
          "name": "operator",
          "type": "address"
        },
        {
          "indexed": true,
          "internalType": "address",
          "name": "from",
          "type": "address"
        },
        {
          "indexed": true,
          "internalType": "address",
          "name": "to",
          "type": "address"
        },
        {
          "indexed": false,
          "internalType": "uint256[]",
          "name": "ids",
          "type": "uint256[]"
        },
        {
          "indexed": false,
          "internalType": "uint256[]",
          "name": "values",
          "type": "uint256[]"
        }
      ],
      "name": "TransferBatch",
      "type": "event"
    },
    {
      "anonymous": false,
      "inputs": [
        {
          "indexed": true,
          "internalType": "address",
          "name": "operator",
          "type": "address"
        },
        {
          "indexed": true,
          "internalType": "address",
          "name": "from",
          "type": "address"
        },
        {
          "indexed": true,
          "internalType": "address",
          "name": "to",
          "type": "address"
        },
        {
          "indexed": false,
          "internalType": "uint256",
          "name": "id",
          "type": "uint256"
        },
        {
          "indexed": false,
          "internalType": "uint256",
          "name": "value",
          "type": "uint256"
        }
      ],
      "name": "TransferSingle",
      "type": "event"
    },
    {
      "anonymous": false,
      "inputs": [
        {
          "indexed": false,
          "internalType": "string",
          "name": "value",
          "type": "string"
        },
        {
          "indexed": true,
          "internalType": "uint256",
          "name": "id",
          "type": "uint256"
        }
      ],
      "name": "URI",
      "type": "event"
    },
    {
      "inputs": [
        {
          "internalType": "address",
          "name": "account",
          "type": "address"
        },
        {
          "internalType": "uint256",
          "name": "id",
          "type": "uint256"
        }
      ],
      "name": "balanceOf",
      "outputs": [
        {
          "internalType": "uint256",
          "name": "",
          "type": "uint256"
        }
      ],
      "stateMutability": "view",
      "type": "function"
    },
    {
      "inputs": [
        {
          "internalType": "address[]",
          "name": "accounts",
          "type": "address[]"
        },
        {
          "internalType": "uint256[]",
          "name": "ids",
          "type": "uint256[]"
        }
      ],
      "name": "balanceOfBatch",
      "outputs": [
        {
          "internalType": "uint256[]",
          "name": "",
          "type": "uint256[]"
        }
      ],
      "stateMutability": "view",
      "type": "function"
    },
    {
      "inputs": [],
      "name": "contractOwner",
      "outputs": [
        {
          "internalType": "address payable",
          "name": "",
          "type": "address"
        }
      ],
      "stateMutability": "view",
      "type": "function"
    },
    {
      "inputs": [
        {
          "internalType": "address",
          "name": "account",
          "type": "address"
        },
        {
          "internalType": "address",
          "name": "operator",
          "type": "address"
        }
      ],
      "name": "isApprovedForAll",
      "outputs": [
        {
          "internalType": "bool",
          "name": "",
          "type": "bool"
        }
      ],
      "stateMutability": "view",
      "type": "function"
    },
    {
      "inputs": [
        {
          "internalType": "uint256",
          "name": "id",
          "type": "uint256"
        },
        {
          "internalType": "uint256",
          "name": "copies",
          "type": "uint256"
        }
      ],
      "name": "mintTokens",
      "outputs": [],
      "stateMutability": "nonpayable",
      "type": "function"
    },
    {
      "inputs": [
        {
          "internalType": "address",
          "name": "from",
          "type": "address"
        },
        {
          "internalType": "address",
          "name": "to",
          "type": "address"
        },
        {
          "internalType": "uint256[]",
          "name": "ids",
          "type": "uint256[]"
        },
        {
          "internalType": "uint256[]",
          "name": "amounts",
          "type": "uint256[]"
        },
        {
          "internalType": "bytes",
          "name": "data",
          "type": "bytes"
        }
      ],
      "name": "safeBatchTransferFrom",
      "outputs": [],
      "stateMutability": "nonpayable",
      "type": "function"
    },
    {
      "inputs": [
        {
          "internalType": "address",
          "name": "from",
          "type": "address"
        },
        {
          "internalType": "address",
          "name": "to",
          "type": "address"
        },
        {
          "internalType": "uint256",
          "name": "id",
          "type": "uint256"
        },
        {
          "internalType": "uint256",
          "name": "amount",
          "type": "uint256"
        },
        {
          "internalType": "bytes",
          "name": "data",
          "type": "bytes"
        }
      ],
      "name": "safeTransferFrom",
      "outputs": [],
      "stateMutability": "nonpayable",
      "type": "function"
    },
    {
      "inputs": [
        {
          "internalType": "address",
          "name": "operator",
          "type": "address"
        },
        {
          "internalType": "bool",
          "name": "approved",
          "type": "bool"
        }
      ],
      "name": "setApprovalForAll",
      "outputs": [],
      "stateMutability": "nonpayable",
      "type": "function"
    },
    {
      "inputs": [
        {
          "internalType": "bytes4",
          "name": "interfaceId",
          "type": "bytes4"
        }
      ],
      "name": "supportsInterface",
      "outputs": [
        {
          "internalType": "bool",
          "name": "",
          "type": "bool"
        }
      ],
      "stateMutability": "view",
      "type": "function"
    },
    {
      "inputs": [
        {
          "internalType": "uint256",
          "name": "id",
          "type": "uint256"
        }
      ],
      "name": "uri",
      "outputs": [
        {
          "internalType": "string",
          "name": "",
          "type": "string"
        }
      ],
      "stateMutability": "view",
      "type": "function"
    }
  ],
  "bytecode": "0x60806040523480156200001157600080fd5b506040518060400160405280601e81526020017f68747470733a2f2f67616d652e6578616d706c652f6170692f6974656d2f00008152506200005981620000a160201b60201c565b5033600360006101000a81548173ffffffffffffffffffffffffffffffffffffffff021916908373ffffffffffffffffffffffffffffffffffffffff16021790555062000417565b8060029081620000b2919062000330565b5050565b600081519050919050565b7f4e487b7100000000000000000000000000000000000000000000000000000000600052604160045260246000fd5b7f4e487b7100000000000000000000000000000000000000000000000000000000600052602260045260246000fd5b600060028204905060018216806200013857607f821691505b6020821081036200014e576200014d620000f0565b5b50919050565b60008190508160005260206000209050919050565b60006020601f8301049050919050565b600082821b905092915050565b600060088302620001b87fffffffffffffffffffffffffffffffffffffffffffffffffffffffffffffffff8262000179565b620001c4868362000179565b95508019841693508086168417925050509392505050565b6000819050919050565b6000819050919050565b6000620002116200020b6200020584620001dc565b620001e6565b620001dc565b9050919050565b6000819050919050565b6200022d83620001f0565b620002456200023c8262000218565b84845462000186565b825550505050565b600090565b6200025c6200024d565b6200026981848462000222565b505050565b5b8181101562000291576200028560008262000252565b6001810190506200026f565b5050565b601f821115620002e057620002aa8162000154565b620002b58462000169565b81016020851015620002c5578190505b620002dd620002d48562000169565b8301826200026e565b50505b505050565b600082821c905092915050565b60006200030560001984600802620002e5565b1980831691505092915050565b6000620003208383620002f2565b9150826002028217905092915050565b6200033b82620000b6565b67ffffffffffffffff811115620003575762000356620000c1565b5b6200036382546200011f565b6200037082828562000295565b600060209050601f831160018114620003a8576000841562000393578287015190505b6200039f858262000312565b8655506200040f565b601f198416620003b88662000154565b60005b82811015620003e257848901518255600182019150602085019450602081019050620003bb565b86831015620004025784890151620003fe601f891682620002f2565b8355505b6001600288020188555050505b505050505050565b612e4280620004276000396000f3fe608060405234801561001057600080fd5b506004361061009d5760003560e01c80634e1273f4116100665780634e1273f41461016a578063a22cb4651461019a578063ce606ee0146101b6578063e985e9c5146101d4578063f242432a146102045761009d565b8062fdd58e146100a257806301ffc9a7146100d25780630e89341c146101025780632eb2c2d61461013257806334a7c2e71461014e575b600080fd5b6100bc60048036038101906100b79190611ae1565b610220565b6040516100c99190611b30565b60405180910390f35b6100ec60048036038101906100e79190611ba3565b6102c4565b6040516100f99190611beb565b60405180910390f35b61011c60048036038101906101179190611c06565b6103a6565b6040516101299190611cc3565b60405180910390f35b61014c60048036038101906101479190611ee2565b610471565b005b61016860048036038101906101639190611fb1565b610515565b005b610184600480360381019061017f91906120b4565b6105e6565b60405161019191906121ea565b60405180910390f35b6101b460048036038101906101af9190612238565b61068a565b005b6101be6106a0565b6040516101cb9190612299565b60405180910390f35b6101ee60048036038101906101e991906122b4565b6106c6565b6040516101fb9190611beb565b60405180910390f35b61021e600480360381019061021991906122f4565b61075a565b005b6000600360009054906101000a900473ffffffffffffffffffffffffffffffffffffffff1673ffffffffffffffffffffffffffffffffffffffff163373ffffffffffffffffffffffffffffffffffffffff16146102b2576040517f08c379a00000000000000000000000000000000000000000000000000000000081526004016102a990612423565b60405180910390fd5b6102bc83836107fe565b905092915050565b60007fd9b67a26000000000000000000000000000000000000000000000000000000007bffffffffffffffffffffffffffffffffffffffffffffffffffffffff1916827bffffffffffffffffffffffffffffffffffffffffffffffffffffffff1916148061038f57507f0e89341c000000000000000000000000000000000000000000000000000000007bffffffffffffffffffffffffffffffffffffffffffffffffffffffff1916827bffffffffffffffffffffffffffffffffffffffffffffffffffffffff1916145b8061039f575061039e826108c6565b5b9050919050565b6060600360009054906101000a900473ffffffffffffffffffffffffffffffffffffffff1673ffffffffffffffffffffffffffffffffffffffff163373ffffffffffffffffffffffffffffffffffffffff1614610438576040517f08c379a000000000000000000000000000000000000000000000000000000000815260040161042f90612423565b60405180910390fd5b61044182610930565b61044a836109c4565b60405160200161045b9291906124cb565b6040516020818303038152906040529050919050565b600360009054906101000a900473ffffffffffffffffffffffffffffffffffffffff1673ffffffffffffffffffffffffffffffffffffffff163373ffffffffffffffffffffffffffffffffffffffff1614610501576040517f08c379a00000000000000000000000000000000000000000000000000000000081526004016104f890612423565b60405180910390fd5b61050e8585858585610a92565b5050505050565b600360009054906101000a900473ffffffffffffffffffffffffffffffffffffffff1673ffffffffffffffffffffffffffffffffffffffff163373ffffffffffffffffffffffffffffffffffffffff16146105a5576040517f08c379a000000000000000000000000000000000000000000000000000000000815260040161059c90612423565b60405180910390fd5b6105e2600360009054906101000a900473ffffffffffffffffffffffffffffffffffffffff16838360405180602001604052806000815250610db3565b5050565b6060600360009054906101000a900473ffffffffffffffffffffffffffffffffffffffff1673ffffffffffffffffffffffffffffffffffffffff163373ffffffffffffffffffffffffffffffffffffffff1614610678576040517f08c379a000000000000000000000000000000000000000000000000000000000815260040161066f90612423565b60405180910390fd5b6106828383610f63565b905092915050565b61069c61069561107c565b8383611084565b5050565b600360009054906101000a900473ffffffffffffffffffffffffffffffffffffffff1681565b6000600160008473ffffffffffffffffffffffffffffffffffffffff1673ffffffffffffffffffffffffffffffffffffffff16815260200190815260200160002060008373ffffffffffffffffffffffffffffffffffffffff1673ffffffffffffffffffffffffffffffffffffffff16815260200190815260200160002060009054906101000a900460ff16905092915050565b600360009054906101000a900473ffffffffffffffffffffffffffffffffffffffff1673ffffffffffffffffffffffffffffffffffffffff163373ffffffffffffffffffffffffffffffffffffffff16146107ea576040517f08c379a00000000000000000000000000000000000000000000000000000000081526004016107e190612423565b60405180910390fd5b6107f785858585856111f0565b5050505050565b60008073ffffffffffffffffffffffffffffffffffffffff168373ffffffffffffffffffffffffffffffffffffffff160361086e576040517f08c379a00000000000000000000000000000000000000000000000000000000081526004016108659061256c565b60405180910390fd5b60008083815260200190815260200160002060008473ffffffffffffffffffffffffffffffffffffffff1673ffffffffffffffffffffffffffffffffffffffff16815260200190815260200160002054905092915050565b60007f01ffc9a7000000000000000000000000000000000000000000000000000000007bffffffffffffffffffffffffffffffffffffffffffffffffffffffff1916827bffffffffffffffffffffffffffffffffffffffffffffffffffffffff1916149050919050565b60606002805461093f906125bb565b80601f016020809104026020016040519081016040528092919081815260200182805461096b906125bb565b80156109b85780601f1061098d576101008083540402835291602001916109b8565b820191906000526020600020905b81548152906001019060200180831161099b57829003601f168201915b50505050509050919050565b6060600060016109d38461148b565b01905060008167ffffffffffffffff8111156109f2576109f1611cea565b5b6040519080825280601f01601f191660200182016040528015610a245781602001600182028036833780820191505090505b509050600082602001820190505b600115610a87578080600190039150507f3031323334353637383961626364656600000000000000000000000000000000600a86061a8153600a8581610a7b57610a7a6125ec565b5b04945060008503610a32575b819350505050919050565b8151835114610ad6576040517f08c379a0000000000000000000000000000000000000000000000000000000008152600401610acd9061268d565b60405180910390fd5b600073ffffffffffffffffffffffffffffffffffffffff168473ffffffffffffffffffffffffffffffffffffffff1603610b45576040517f08c379a0000000000000000000000000000000000000000000000000000000008152600401610b3c9061271f565b60405180910390fd5b6000610b4f61107c565b9050610b5f8187878787876115de565b60005b8451811015610d10576000858281518110610b8057610b7f61273f565b5b602002602001015190506000858381518110610b9f57610b9e61273f565b5b60200260200101519050600080600084815260200190815260200160002060008b73ffffffffffffffffffffffffffffffffffffffff1673ffffffffffffffffffffffffffffffffffffffff16815260200190815260200160002054905081811015610c40576040517f08c379a0000000000000000000000000000000000000000000000000000000008152600401610c37906127e0565b60405180910390fd5b81810360008085815260200190815260200160002060008c73ffffffffffffffffffffffffffffffffffffffff1673ffffffffffffffffffffffffffffffffffffffff168152602001908152602001600020819055508160008085815260200190815260200160002060008b73ffffffffffffffffffffffffffffffffffffffff1673ffffffffffffffffffffffffffffffffffffffff1681526020019081526020016000206000828254610cf5919061282f565b9250508190555050505080610d0990612863565b9050610b62565b508473ffffffffffffffffffffffffffffffffffffffff168673ffffffffffffffffffffffffffffffffffffffff168273ffffffffffffffffffffffffffffffffffffffff167f4a39dc06d4c0dbc64b70af90fd698a233a518aa5d07e595d983b8c0526c8f7fb8787604051610d879291906128ab565b60405180910390a4610d9d8187878787876115e6565b610dab8187878787876115ee565b505050505050565b600073ffffffffffffffffffffffffffffffffffffffff168473ffffffffffffffffffffffffffffffffffffffff1603610e22576040517f08c379a0000000000000000000000000000000000000000000000000000000008152600401610e1990612954565b60405180910390fd5b6000610e2c61107c565b90506000610e39856117c5565b90506000610e46856117c5565b9050610e57836000898585896115de565b8460008088815260200190815260200160002060008973ffffffffffffffffffffffffffffffffffffffff1673ffffffffffffffffffffffffffffffffffffffff1681526020019081526020016000206000828254610eb6919061282f565b925050819055508673ffffffffffffffffffffffffffffffffffffffff16600073ffffffffffffffffffffffffffffffffffffffff168473ffffffffffffffffffffffffffffffffffffffff167fc3d58168c5ae7397731d063d5bbf3d657854427343f4c083240f7aacaa2d0f628989604051610f34929190612974565b60405180910390a4610f4b836000898585896115e6565b610f5a8360008989898961183f565b50505050505050565b60608151835114610fa9576040517f08c379a0000000000000000000000000000000000000000000000000000000008152600401610fa090612a0f565b60405180910390fd5b6000835167ffffffffffffffff811115610fc657610fc5611cea565b5b604051908082528060200260200182016040528015610ff45781602001602082028036833780820191505090505b50905060005b8451811015611071576110418582815181106110195761101861273f565b5b60200260200101518583815181106110345761103361273f565b5b6020026020010151610220565b8282815181106110545761105361273f565b5b6020026020010181815250508061106a90612863565b9050610ffa565b508091505092915050565b600033905090565b8173ffffffffffffffffffffffffffffffffffffffff168373ffffffffffffffffffffffffffffffffffffffff16036110f2576040517f08c379a00000000000000000000000000000000000000000000000000000000081526004016110e990612aa1565b60405180910390fd5b80600160008573ffffffffffffffffffffffffffffffffffffffff1673ffffffffffffffffffffffffffffffffffffffff16815260200190815260200160002060008473ffffffffffffffffffffffffffffffffffffffff1673ffffffffffffffffffffffffffffffffffffffff16815260200190815260200160002060006101000a81548160ff0219169083151502179055508173ffffffffffffffffffffffffffffffffffffffff168373ffffffffffffffffffffffffffffffffffffffff167f17307eab39ab6107e8899845ad3d59bd9653f200f220920489ca2b5937696c31836040516111e39190611beb565b60405180910390a3505050565b600073ffffffffffffffffffffffffffffffffffffffff168473ffffffffffffffffffffffffffffffffffffffff160361125f576040517f08c379a00000000000000000000000000000000000000000000000000000000081526004016112569061271f565b60405180910390fd5b600061126961107c565b90506000611276856117c5565b90506000611283856117c5565b90506112938389898585896115de565b600080600088815260200190815260200160002060008a73ffffffffffffffffffffffffffffffffffffffff1673ffffffffffffffffffffffffffffffffffffffff1681526020019081526020016000205490508581101561132a576040517f08c379a0000000000000000000000000000000000000000000000000000000008152600401611321906127e0565b60405180910390fd5b85810360008089815260200190815260200160002060008b73ffffffffffffffffffffffffffffffffffffffff1673ffffffffffffffffffffffffffffffffffffffff168152602001908152602001600020819055508560008089815260200190815260200160002060008a73ffffffffffffffffffffffffffffffffffffffff1673ffffffffffffffffffffffffffffffffffffffff16815260200190815260200160002060008282546113df919061282f565b925050819055508773ffffffffffffffffffffffffffffffffffffffff168973ffffffffffffffffffffffffffffffffffffffff168573ffffffffffffffffffffffffffffffffffffffff167fc3d58168c5ae7397731d063d5bbf3d657854427343f4c083240f7aacaa2d0f628a8a60405161145c929190612974565b60405180910390a4611472848a8a86868a6115e6565b611480848a8a8a8a8a61183f565b505050505050505050565b600080600090507a184f03e93ff9f4daa797ed6e38ed64bf6a1f01000000000000000083106114e9577a184f03e93ff9f4daa797ed6e38ed64bf6a1f01000000000000000083816114df576114de6125ec565b5b0492506040810190505b6d04ee2d6d415b85acef81000000008310611526576d04ee2d6d415b85acef8100000000838161151c5761151b6125ec565b5b0492506020810190505b662386f26fc10000831061155557662386f26fc10000838161154b5761154a6125ec565b5b0492506010810190505b6305f5e100831061157e576305f5e1008381611574576115736125ec565b5b0492506008810190505b61271083106115a3576127108381611599576115986125ec565b5b0492506004810190505b606483106115c657606483816115bc576115bb6125ec565b5b0492506002810190505b600a83106115d5576001810190505b80915050919050565b505050505050565b505050505050565b61160d8473ffffffffffffffffffffffffffffffffffffffff16611a16565b156117bd578373ffffffffffffffffffffffffffffffffffffffff1663bc197c8187878686866040518663ffffffff1660e01b8152600401611653959493929190612b25565b6020604051808303816000875af192505050801561168f57506040513d601f19601f8201168201806040525081019061168c9190612ba2565b60015b6117345761169b612bdc565b806308c379a0036116f757506116af612bfe565b806116ba57506116f9565b806040517f08c379a00000000000000000000000000000000000000000000000000000000081526004016116ee9190611cc3565b60405180910390fd5b505b6040517f08c379a000000000000000000000000000000000000000000000000000000000815260040161172b90612d00565b60405180910390fd5b63bc197c8160e01b7bffffffffffffffffffffffffffffffffffffffffffffffffffffffff1916817bffffffffffffffffffffffffffffffffffffffffffffffffffffffff1916146117bb576040517f08c379a00000000000000000000000000000000000000000000000000000000081526004016117b290612d92565b60405180910390fd5b505b505050505050565b60606000600167ffffffffffffffff8111156117e4576117e3611cea565b5b6040519080825280602002602001820160405280156118125781602001602082028036833780820191505090505b509050828160008151811061182a5761182961273f565b5b60200260200101818152505080915050919050565b61185e8473ffffffffffffffffffffffffffffffffffffffff16611a16565b15611a0e578373ffffffffffffffffffffffffffffffffffffffff1663f23a6e6187878686866040518663ffffffff1660e01b81526004016118a4959493929190612db2565b6020604051808303816000875af19250505080156118e057506040513d601f19601f820116820180604052508101906118dd9190612ba2565b60015b611985576118ec612bdc565b806308c379a0036119485750611900612bfe565b8061190b575061194a565b806040517f08c379a000000000000000000000000000000000000000000000000000000000815260040161193f9190611cc3565b60405180910390fd5b505b6040517f08c379a000000000000000000000000000000000000000000000000000000000815260040161197c90612d00565b60405180910390fd5b63f23a6e6160e01b7bffffffffffffffffffffffffffffffffffffffffffffffffffffffff1916817bffffffffffffffffffffffffffffffffffffffffffffffffffffffff191614611a0c576040517f08c379a0000000000000000000000000000000000000000000000000000000008152600401611a0390612d92565b60405180910390fd5b505b505050505050565b6000808273ffffffffffffffffffffffffffffffffffffffff163b119050919050565b6000604051905090565b600080fd5b600080fd5b600073ffffffffffffffffffffffffffffffffffffffff82169050919050565b6000611a7882611a4d565b9050919050565b611a8881611a6d565b8114611a9357600080fd5b50565b600081359050611aa581611a7f565b92915050565b6000819050919050565b611abe81611aab565b8114611ac957600080fd5b50565b600081359050611adb81611ab5565b92915050565b60008060408385031215611af857611af7611a43565b5b6000611b0685828601611a96565b9250506020611b1785828601611acc565b9150509250929050565b611b2a81611aab565b82525050565b6000602082019050611b456000830184611b21565b92915050565b60007fffffffff0000000000000000000000000000000000000000000000000000000082169050919050565b611b8081611b4b565b8114611b8b57600080fd5b50565b600081359050611b9d81611b77565b92915050565b600060208284031215611bb957611bb8611a43565b5b6000611bc784828501611b8e565b91505092915050565b60008115159050919050565b611be581611bd0565b82525050565b6000602082019050611c006000830184611bdc565b92915050565b600060208284031215611c1c57611c1b611a43565b5b6000611c2a84828501611acc565b91505092915050565b600081519050919050565b600082825260208201905092915050565b60005b83811015611c6d578082015181840152602081019050611c52565b60008484015250505050565b6000601f19601f8301169050919050565b6000611c9582611c33565b611c9f8185611c3e565b9350611caf818560208601611c4f565b611cb881611c79565b840191505092915050565b60006020820190508181036000830152611cdd8184611c8a565b905092915050565b600080fd5b7f4e487b7100000000000000000000000000000000000000000000000000000000600052604160045260246000fd5b611d2282611c79565b810181811067ffffffffffffffff82111715611d4157611d40611cea565b5b80604052505050565b6000611d54611a39565b9050611d608282611d19565b919050565b600067ffffffffffffffff821115611d8057611d7f611cea565b5b602082029050602081019050919050565b600080fd5b6000611da9611da484611d65565b611d4a565b90508083825260208201905060208402830185811115611dcc57611dcb611d91565b5b835b81811015611df55780611de18882611acc565b845260208401935050602081019050611dce565b5050509392505050565b600082601f830112611e1457611e13611ce5565b5b8135611e24848260208601611d96565b91505092915050565b600080fd5b600067ffffffffffffffff821115611e4d57611e4c611cea565b5b611e5682611c79565b9050602081019050919050565b82818337600083830152505050565b6000611e85611e8084611e32565b611d4a565b905082815260208101848484011115611ea157611ea0611e2d565b5b611eac848285611e63565b509392505050565b600082601f830112611ec957611ec8611ce5565b5b8135611ed9848260208601611e72565b91505092915050565b600080600080600060a08688031215611efe57611efd611a43565b5b6000611f0c88828901611a96565b9550506020611f1d88828901611a96565b945050604086013567ffffffffffffffff811115611f3e57611f3d611a48565b5b611f4a88828901611dff565b935050606086013567ffffffffffffffff811115611f6b57611f6a611a48565b5b611f7788828901611dff565b925050608086013567ffffffffffffffff811115611f9857611f97611a48565b5b611fa488828901611eb4565b9150509295509295909350565b60008060408385031215611fc857611fc7611a43565b5b6000611fd685828601611acc565b9250506020611fe785828601611acc565b9150509250929050565b600067ffffffffffffffff82111561200c5761200b611cea565b5b602082029050602081019050919050565b600061203061202b84611ff1565b611d4a565b9050808382526020820190506020840283018581111561205357612052611d91565b5b835b8181101561207c57806120688882611a96565b845260208401935050602081019050612055565b5050509392505050565b600082601f83011261209b5761209a611ce5565b5b81356120ab84826020860161201d565b91505092915050565b600080604083850312156120cb576120ca611a43565b5b600083013567ffffffffffffffff8111156120e9576120e8611a48565b5b6120f585828601612086565b925050602083013567ffffffffffffffff81111561211657612115611a48565b5b61212285828601611dff565b9150509250929050565b600081519050919050565b600082825260208201905092915050565b6000819050602082019050919050565b61216181611aab565b82525050565b60006121738383612158565b60208301905092915050565b6000602082019050919050565b60006121978261212c565b6121a18185612137565b93506121ac83612148565b8060005b838110156121dd5781516121c48882612167565b97506121cf8361217f565b9250506001810190506121b0565b5085935050505092915050565b60006020820190508181036000830152612204818461218c565b905092915050565b61221581611bd0565b811461222057600080fd5b50565b6000813590506122328161220c565b92915050565b6000806040838503121561224f5761224e611a43565b5b600061225d85828601611a96565b925050602061226e85828601612223565b9150509250929050565b600061228382611a4d565b9050919050565b61229381612278565b82525050565b60006020820190506122ae600083018461228a565b92915050565b600080604083850312156122cb576122ca611a43565b5b60006122d985828601611a96565b92505060206122ea85828601611a96565b9150509250929050565b600080600080600060a086880312156123105761230f611a43565b5b600061231e88828901611a96565b955050602061232f88828901611a96565b945050604061234088828901611acc565b935050606061235188828901611acc565b925050608086013567ffffffffffffffff81111561237257612371611a48565b5b61237e88828901611eb4565b9150509295509295909350565b7f4f6e6c792074686520636f6e7472616374206f776e65722063616e207065726660008201527f6f726d2074686973206f7065726174696f6e2e2054686973207472616e73616360208201527f74696f6e2077696c6c2062652072657665727465642e00000000000000000000604082015250565b600061240d605683611c3e565b91506124188261238b565b606082019050919050565b6000602082019050818103600083015261243c81612400565b9050919050565b600081905092915050565b600061245982611c33565b6124638185612443565b9350612473818560208601611c4f565b80840191505092915050565b7f2e6a736f6e000000000000000000000000000000000000000000000000000000600082015250565b60006124b5600583612443565b91506124c08261247f565b600582019050919050565b60006124d7828561244e565b91506124e3828461244e565b91506124ee826124a8565b91508190509392505050565b7f455243313135353a2061646472657373207a65726f206973206e6f742061207660008201527f616c6964206f776e657200000000000000000000000000000000000000000000602082015250565b6000612556602a83611c3e565b9150612561826124fa565b604082019050919050565b6000602082019050818103600083015261258581612549565b9050919050565b7f4e487b7100000000000000000000000000000000000000000000000000000000600052602260045260246000fd5b600060028204905060018216806125d357607f821691505b6020821081036125e6576125e561258c565b5b50919050565b7f4e487b7100000000000000000000000000000000000000000000000000000000600052601260045260246000fd5b7f455243313135353a2069647320616e6420616d6f756e7473206c656e6774682060008201527f6d69736d61746368000000000000000000000000000000000000000000000000602082015250565b6000612677602883611c3e565b91506126828261261b565b604082019050919050565b600060208201905081810360008301526126a68161266a565b9050919050565b7f455243313135353a207472616e7366657220746f20746865207a65726f20616460008201527f6472657373000000000000000000000000000000000000000000000000000000602082015250565b6000612709602583611c3e565b9150612714826126ad565b604082019050919050565b60006020820190508181036000830152612738816126fc565b9050919050565b7f4e487b7100000000000000000000000000000000000000000000000000000000600052603260045260246000fd5b7f455243313135353a20696e73756666696369656e742062616c616e636520666f60008201527f72207472616e7366657200000000000000000000000000000000000000000000602082015250565b60006127ca602a83611c3e565b91506127d58261276e565b604082019050919050565b600060208201905081810360008301526127f9816127bd565b9050919050565b7f4e487b7100000000000000000000000000000000000000000000000000000000600052601160045260246000fd5b600061283a82611aab565b915061284583611aab565b925082820190508082111561285d5761285c612800565b5b92915050565b600061286e82611aab565b91507fffffffffffffffffffffffffffffffffffffffffffffffffffffffffffffffff82036128a05761289f612800565b5b600182019050919050565b600060408201905081810360008301526128c5818561218c565b905081810360208301526128d9818461218c565b90509392505050565b7f455243313135353a206d696e7420746f20746865207a65726f2061646472657360008201527f7300000000000000000000000000000000000000000000000000000000000000602082015250565b600061293e602183611c3e565b9150612949826128e2565b604082019050919050565b6000602082019050818103600083015261296d81612931565b9050919050565b60006040820190506129896000830185611b21565b6129966020830184611b21565b9392505050565b7f455243313135353a206163636f756e747320616e6420696473206c656e67746860008201527f206d69736d617463680000000000000000000000000000000000000000000000602082015250565b60006129f9602983611c3e565b9150612a048261299d565b604082019050919050565b60006020820190508181036000830152612a28816129ec565b9050919050565b7f455243313135353a2073657474696e6720617070726f76616c2073746174757360008201527f20666f722073656c660000000000000000000000000000000000000000000000602082015250565b6000612a8b602983611c3e565b9150612a9682612a2f565b604082019050919050565b60006020820190508181036000830152612aba81612a7e565b9050919050565b612aca81611a6d565b82525050565b600081519050919050565b600082825260208201905092915050565b6000612af782612ad0565b612b018185612adb565b9350612b11818560208601611c4f565b612b1a81611c79565b840191505092915050565b600060a082019050612b3a6000830188612ac1565b612b476020830187612ac1565b8181036040830152612b59818661218c565b90508181036060830152612b6d818561218c565b90508181036080830152612b818184612aec565b90509695505050505050565b600081519050612b9c81611b77565b92915050565b600060208284031215612bb857612bb7611a43565b5b6000612bc684828501612b8d565b91505092915050565b60008160e01c9050919050565b600060033d1115612bfb5760046000803e612bf8600051612bcf565b90505b90565b600060443d10612c8b57612c10611a39565b60043d036004823e80513d602482011167ffffffffffffffff82111715612c38575050612c8b565b808201805167ffffffffffffffff811115612c565750505050612c8b565b80602083010160043d038501811115612c73575050505050612c8b565b612c8282602001850186611d19565b82955050505050505b90565b7f455243313135353a207472616e7366657220746f206e6f6e2d4552433131353560008201527f526563656976657220696d706c656d656e746572000000000000000000000000602082015250565b6000612cea603483611c3e565b9150612cf582612c8e565b604082019050919050565b60006020820190508181036000830152612d1981612cdd565b9050919050565b7f455243313135353a204552433131353552656365697665722072656a6563746560008201527f6420746f6b656e73000000000000000000000000000000000000000000000000602082015250565b6000612d7c602883611c3e565b9150612d8782612d20565b604082019050919050565b60006020820190508181036000830152612dab81612d6f565b9050919050565b600060a082019050612dc76000830188612ac1565b612dd46020830187612ac1565b612de16040830186611b21565b612dee6060830185611b21565b8181036080830152612e008184612aec565b9050969550505050505056fea2646970667358221220856f15fb4c0d87ca45f8159314a0082414fe04587eec5eb14f4e6e116ab920d764736f6c63430008110033",
  "linkReferences": {},
  "deployedLinkReferences": {}
}