{
  "_format": "hh-sol-artifact-1",
  "contractName": "NasaFT",
  "sourceName": "contracts/NasaFT.sol",
  "abi": [
    {
      "inputs": [],
      "stateMutability": "nonpayable",
      "type": "constructor"
    },
    {
      "anonymous": false,
      "inputs": [
        {
          "indexed": true,
          "internalType": "address",
          "name": "account",
          "type": "address"
        },
        {
          "indexed": true,
          "internalType": "address",
          "name": "operator",
          "type": "address"
        },
        {
          "indexed": false,
          "internalType": "bool",
          "name": "approved",
          "type": "bool"
        }
      ],
      "name": "ApprovalForAll",
      "type": "event"
    },
    {
      "anonymous": false,
      "inputs": [
        {
          "indexed": true,
          "internalType": "address",
          "name": "previousOwner",
          "type": "address"
        },
        {
          "indexed": true,
          "internalType": "address",
          "name": "newOwner",
          "type": "address"
        }
      ],
      "name": "OwnershipTransferred",
      "type": "event"
    },
    {
      "anonymous": false,
      "inputs": [
        {
          "indexed": true,
          "internalType": "address",
          "name": "operator",
          "type": "address"
        },
        {
          "indexed": true,
          "internalType": "address",
          "name": "from",
          "type": "address"
        },
        {
          "indexed": true,
          "internalType": "address",
          "name": "to",
          "type": "address"
        },
        {
          "indexed": false,
          "internalType": "uint256[]",
          "name": "ids",
          "type": "uint256[]"
        },
        {
          "indexed": false,
          "internalType": "uint256[]",
          "name": "values",
          "type": "uint256[]"
        }
      ],
      "name": "TransferBatch",
      "type": "event"
    },
    {
      "anonymous": false,
      "inputs": [
        {
          "indexed": true,
          "internalType": "address",
          "name": "operator",
          "type": "address"
        },
        {
          "indexed": true,
          "internalType": "address",
          "name": "from",
          "type": "address"
        },
        {
          "indexed": true,
          "internalType": "address",
          "name": "to",
          "type": "address"
        },
        {
          "indexed": false,
          "internalType": "uint256",
          "name": "id",
          "type": "uint256"
        },
        {
          "indexed": false,
          "internalType": "uint256",
          "name": "value",
          "type": "uint256"
        }
      ],
      "name": "TransferSingle",
      "type": "event"
    },
    {
      "anonymous": false,
      "inputs": [
        {
          "indexed": false,
          "internalType": "string",
          "name": "value",
          "type": "string"
        },
        {
          "indexed": true,
          "internalType": "uint256",
          "name": "id",
          "type": "uint256"
        }
      ],
      "name": "URI",
      "type": "event"
    },
    {
      "anonymous": false,
      "inputs": [
        {
          "indexed": false,
          "internalType": "uint256",
          "name": "id",
          "type": "uint256"
        },
        {
          "indexed": false,
          "internalType": "string",
          "name": "uri",
          "type": "string"
        }
      ],
      "name": "UriUpdated",
      "type": "event"
    },
    {
      "inputs": [
        {
          "internalType": "address",
          "name": "account",
          "type": "address"
        },
        {
          "internalType": "uint256",
          "name": "id",
          "type": "uint256"
        }
      ],
      "name": "balanceOf",
      "outputs": [
        {
          "internalType": "uint256",
          "name": "",
          "type": "uint256"
        }
      ],
      "stateMutability": "view",
      "type": "function"
    },
    {
      "inputs": [
        {
          "internalType": "address[]",
          "name": "accounts",
          "type": "address[]"
        },
        {
          "internalType": "uint256[]",
          "name": "ids",
          "type": "uint256[]"
        }
      ],
      "name": "balanceOfBatch",
      "outputs": [
        {
          "internalType": "uint256[]",
          "name": "",
          "type": "uint256[]"
        }
      ],
      "stateMutability": "view",
      "type": "function"
    },
    {
      "inputs": [
        {
          "internalType": "address",
          "name": "from",
          "type": "address"
        },
        {
          "internalType": "uint256",
          "name": "id",
          "type": "uint256"
        },
        {
          "internalType": "uint256",
          "name": "copies",
          "type": "uint256"
        }
      ],
      "name": "burnTokens",
      "outputs": [],
      "stateMutability": "nonpayable",
      "type": "function"
    },
    {
      "inputs": [
        {
          "internalType": "address",
          "name": "account",
          "type": "address"
        },
        {
          "internalType": "address",
          "name": "operator",
          "type": "address"
        }
      ],
      "name": "isApprovedForAll",
      "outputs": [
        {
          "internalType": "bool",
          "name": "",
          "type": "bool"
        }
      ],
      "stateMutability": "view",
      "type": "function"
    },
    {
      "inputs": [
        {
          "internalType": "uint256",
          "name": "id",
          "type": "uint256"
        },
        {
          "internalType": "uint256",
          "name": "copies",
          "type": "uint256"
        },
        {
          "internalType": "string",
          "name": "tokenUri",
          "type": "string"
        }
      ],
      "name": "mintTokens",
      "outputs": [],
      "stateMutability": "nonpayable",
      "type": "function"
    },
    {
      "inputs": [],
      "name": "owner",
      "outputs": [
        {
          "internalType": "address",
          "name": "",
          "type": "address"
        }
      ],
      "stateMutability": "view",
      "type": "function"
    },
    {
      "inputs": [],
      "name": "renounceOwnership",
      "outputs": [],
      "stateMutability": "nonpayable",
      "type": "function"
    },
    {
      "inputs": [
        {
          "internalType": "address",
          "name": "from",
          "type": "address"
        },
        {
          "internalType": "address",
          "name": "to",
          "type": "address"
        },
        {
          "internalType": "uint256[]",
          "name": "ids",
          "type": "uint256[]"
        },
        {
          "internalType": "uint256[]",
          "name": "amounts",
          "type": "uint256[]"
        },
        {
          "internalType": "bytes",
          "name": "data",
          "type": "bytes"
        }
      ],
      "name": "safeBatchTransferFrom",
      "outputs": [],
      "stateMutability": "nonpayable",
      "type": "function"
    },
    {
      "inputs": [
        {
          "internalType": "address",
          "name": "from",
          "type": "address"
        },
        {
          "internalType": "address",
          "name": "to",
          "type": "address"
        },
        {
          "internalType": "uint256",
          "name": "id",
          "type": "uint256"
        },
        {
          "internalType": "uint256",
          "name": "amount",
          "type": "uint256"
        },
        {
          "internalType": "bytes",
          "name": "data",
          "type": "bytes"
        }
      ],
      "name": "safeTransferFrom",
      "outputs": [],
      "stateMutability": "nonpayable",
      "type": "function"
    },
    {
      "inputs": [
        {
          "internalType": "address",
          "name": "operator",
          "type": "address"
        },
        {
          "internalType": "bool",
          "name": "approved",
          "type": "bool"
        }
      ],
      "name": "setApprovalForAll",
      "outputs": [],
      "stateMutability": "nonpayable",
      "type": "function"
    },
    {
      "inputs": [
        {
          "internalType": "bytes4",
          "name": "interfaceId",
          "type": "bytes4"
        }
      ],
      "name": "supportsInterface",
      "outputs": [
        {
          "internalType": "bool",
          "name": "",
          "type": "bool"
        }
      ],
      "stateMutability": "view",
      "type": "function"
    },
    {
      "inputs": [
        {
          "internalType": "address",
          "name": "newOwner",
          "type": "address"
        }
      ],
      "name": "transferOwnership",
      "outputs": [],
      "stateMutability": "nonpayable",
      "type": "function"
    },
    {
      "inputs": [
        {
          "internalType": "uint256",
          "name": "id",
          "type": "uint256"
        }
      ],
      "name": "uri",
      "outputs": [
        {
          "internalType": "string",
          "name": "",
          "type": "string"
        }
      ],
      "stateMutability": "view",
      "type": "function"
    }
  ],
  "bytecode": "0x60806040523480156200001157600080fd5b506040518060200160405280600081525062000033816200005a60201b60201c565b5062000054620000486200006f60201b60201c565b6200007760201b60201c565b6200049e565b80600290816200006b9190620003b7565b5050565b600033905090565b6000600360009054906101000a900473ffffffffffffffffffffffffffffffffffffffff16905081600360006101000a81548173ffffffffffffffffffffffffffffffffffffffff021916908373ffffffffffffffffffffffffffffffffffffffff1602179055508173ffffffffffffffffffffffffffffffffffffffff168173ffffffffffffffffffffffffffffffffffffffff167f8be0079c531659141344cd1fd0a4f28419497f9722a3daafe3b4186f6b6457e060405160405180910390a35050565b600081519050919050565b7f4e487b7100000000000000000000000000000000000000000000000000000000600052604160045260246000fd5b7f4e487b7100000000000000000000000000000000000000000000000000000000600052602260045260246000fd5b60006002820490506001821680620001bf57607f821691505b602082108103620001d557620001d462000177565b5b50919050565b60008190508160005260206000209050919050565b60006020601f8301049050919050565b600082821b905092915050565b6000600883026200023f7fffffffffffffffffffffffffffffffffffffffffffffffffffffffffffffffff8262000200565b6200024b868362000200565b95508019841693508086168417925050509392505050565b6000819050919050565b6000819050919050565b600062000298620002926200028c8462000263565b6200026d565b62000263565b9050919050565b6000819050919050565b620002b48362000277565b620002cc620002c3826200029f565b8484546200020d565b825550505050565b600090565b620002e3620002d4565b620002f0818484620002a9565b505050565b5b8181101562000318576200030c600082620002d9565b600181019050620002f6565b5050565b601f82111562000367576200033181620001db565b6200033c84620001f0565b810160208510156200034c578190505b620003646200035b85620001f0565b830182620002f5565b50505b505050565b600082821c905092915050565b60006200038c600019846008026200036c565b1980831691505092915050565b6000620003a7838362000379565b9150826002028217905092915050565b620003c2826200013d565b67ffffffffffffffff811115620003de57620003dd62000148565b5b620003ea8254620001a6565b620003f78282856200031c565b600060209050601f8311600181146200042f57600084156200041a578287015190505b62000426858262000399565b86555062000496565b601f1984166200043f86620001db565b60005b82811015620004695784890151825560018201915060208501945060208101905062000442565b8683101562000489578489015162000485601f89168262000379565b8355505b6001600288020188555050505b505050505050565b61323880620004ae6000396000f3fe608060405234801561001057600080fd5b50600436106100ce5760003560e01c80638da5cb5b1161008c578063e985e9c511610066578063e985e9c51461020f578063f04009b91461023f578063f242432a1461025b578063f2fde38b14610277576100ce565b80638da5cb5b146101b9578063a22cb465146101d7578063e0aeb7c1146101f3576100ce565b8062fdd58e146100d357806301ffc9a7146101035780630e89341c146101335780632eb2c2d6146101635780634e1273f41461017f578063715018a6146101af575b600080fd5b6100ed60048036038101906100e89190611a76565b610293565b6040516100fa9190611ac5565b60405180910390f35b61011d60048036038101906101189190611b38565b6102af565b60405161012a9190611b80565b60405180910390f35b61014d60048036038101906101489190611b9b565b610391565b60405161015a9190611c58565b60405180910390f35b61017d60048036038101906101789190611e77565b610436565b005b61019960048036038101906101949190612009565b610452565b6040516101a6919061213f565b60405180910390f35b6101b761046e565b005b6101c1610482565b6040516101ce9190612170565b60405180910390f35b6101f160048036038101906101ec91906121b7565b6104ac565b005b61020d600480360381019061020891906121f7565b6104c2565b005b6102296004803603810190610224919061224a565b6104da565b6040516102369190611b80565b60405180910390f35b6102596004803603810190610254919061232b565b61056e565b005b6102756004803603810190610270919061239a565b61061f565b005b610291600480360381019061028c9190612431565b61063b565b005b600061029d6106be565b6102a7838361073c565b905092915050565b60007fd9b67a26000000000000000000000000000000000000000000000000000000007bffffffffffffffffffffffffffffffffffffffffffffffffffffffff1916827bffffffffffffffffffffffffffffffffffffffffffffffffffffffff1916148061037a57507f0e89341c000000000000000000000000000000000000000000000000000000007bffffffffffffffffffffffffffffffffffffffffffffffffffffffff1916827bffffffffffffffffffffffffffffffffffffffffffffffffffffffff1916145b8061038a575061038982610804565b5b9050919050565b60606004600083815260200190815260200160002080546103b19061248d565b80601f01602080910402602001604051908101604052809291908181526020018280546103dd9061248d565b801561042a5780601f106103ff5761010080835404028352916020019161042a565b820191906000526020600020905b81548152906001019060200180831161040d57829003601f168201915b50505050509050919050565b61043e6106be565b61044b858585858561086e565b5050505050565b606061045c6106be565b6104668383610b8f565b905092915050565b6104766106be565b6104806000610ca8565b565b6000600360009054906101000a900473ffffffffffffffffffffffffffffffffffffffff16905090565b6104be6104b7610d6e565b8383610d76565b5050565b6104ca6106be565b6104d5838383610ee2565b505050565b6000600160008473ffffffffffffffffffffffffffffffffffffffff1673ffffffffffffffffffffffffffffffffffffffff16815260200190815260200160002060008373ffffffffffffffffffffffffffffffffffffffff1673ffffffffffffffffffffffffffffffffffffffff16815260200190815260200160002060009054906101000a900460ff16905092915050565b6105766106be565b610598610581610482565b848460405180602001604052806000815250611128565b60006004600085815260200190815260200160002080546105b89061248d565b90500361061a57806004600085815260200190815260200160002090816105df919061266a565b507fa21868eaf3c7f76e3920b694616a9b525dabdac615d6e3da5f3890aac442e05d838260405161061192919061273c565b60405180910390a15b505050565b6106276106be565b61063485858585856112d8565b5050505050565b6106436106be565b600073ffffffffffffffffffffffffffffffffffffffff168173ffffffffffffffffffffffffffffffffffffffff16036106b2576040517f08c379a00000000000000000000000000000000000000000000000000000000081526004016106a9906127de565b60405180910390fd5b6106bb81610ca8565b50565b6106c6610d6e565b73ffffffffffffffffffffffffffffffffffffffff166106e4610482565b73ffffffffffffffffffffffffffffffffffffffff161461073a576040517f08c379a00000000000000000000000000000000000000000000000000000000081526004016107319061284a565b60405180910390fd5b565b60008073ffffffffffffffffffffffffffffffffffffffff168373ffffffffffffffffffffffffffffffffffffffff16036107ac576040517f08c379a00000000000000000000000000000000000000000000000000000000081526004016107a3906128dc565b60405180910390fd5b60008083815260200190815260200160002060008473ffffffffffffffffffffffffffffffffffffffff1673ffffffffffffffffffffffffffffffffffffffff16815260200190815260200160002054905092915050565b60007f01ffc9a7000000000000000000000000000000000000000000000000000000007bffffffffffffffffffffffffffffffffffffffffffffffffffffffff1916827bffffffffffffffffffffffffffffffffffffffffffffffffffffffff1916149050919050565b81518351146108b2576040517f08c379a00000000000000000000000000000000000000000000000000000000081526004016108a99061296e565b60405180910390fd5b600073ffffffffffffffffffffffffffffffffffffffff168473ffffffffffffffffffffffffffffffffffffffff1603610921576040517f08c379a000000000000000000000000000000000000000000000000000000000815260040161091890612a00565b60405180910390fd5b600061092b610d6e565b905061093b818787878787611573565b60005b8451811015610aec57600085828151811061095c5761095b612a20565b5b60200260200101519050600085838151811061097b5761097a612a20565b5b60200260200101519050600080600084815260200190815260200160002060008b73ffffffffffffffffffffffffffffffffffffffff1673ffffffffffffffffffffffffffffffffffffffff16815260200190815260200160002054905081811015610a1c576040517f08c379a0000000000000000000000000000000000000000000000000000000008152600401610a1390612ac1565b60405180910390fd5b81810360008085815260200190815260200160002060008c73ffffffffffffffffffffffffffffffffffffffff1673ffffffffffffffffffffffffffffffffffffffff168152602001908152602001600020819055508160008085815260200190815260200160002060008b73ffffffffffffffffffffffffffffffffffffffff1673ffffffffffffffffffffffffffffffffffffffff1681526020019081526020016000206000828254610ad19190612b10565b9250508190555050505080610ae590612b44565b905061093e565b508473ffffffffffffffffffffffffffffffffffffffff168673ffffffffffffffffffffffffffffffffffffffff168273ffffffffffffffffffffffffffffffffffffffff167f4a39dc06d4c0dbc64b70af90fd698a233a518aa5d07e595d983b8c0526c8f7fb8787604051610b63929190612b8c565b60405180910390a4610b7981878787878761157b565b610b87818787878787611583565b505050505050565b60608151835114610bd5576040517f08c379a0000000000000000000000000000000000000000000000000000000008152600401610bcc90612c35565b60405180910390fd5b6000835167ffffffffffffffff811115610bf257610bf1611c7f565b5b604051908082528060200260200182016040528015610c205781602001602082028036833780820191505090505b50905060005b8451811015610c9d57610c6d858281518110610c4557610c44612a20565b5b6020026020010151858381518110610c6057610c5f612a20565b5b6020026020010151610293565b828281518110610c8057610c7f612a20565b5b60200260200101818152505080610c9690612b44565b9050610c26565b508091505092915050565b6000600360009054906101000a900473ffffffffffffffffffffffffffffffffffffffff16905081600360006101000a81548173ffffffffffffffffffffffffffffffffffffffff021916908373ffffffffffffffffffffffffffffffffffffffff1602179055508173ffffffffffffffffffffffffffffffffffffffff168173ffffffffffffffffffffffffffffffffffffffff167f8be0079c531659141344cd1fd0a4f28419497f9722a3daafe3b4186f6b6457e060405160405180910390a35050565b600033905090565b8173ffffffffffffffffffffffffffffffffffffffff168373ffffffffffffffffffffffffffffffffffffffff1603610de4576040517f08c379a0000000000000000000000000000000000000000000000000000000008152600401610ddb90612cc7565b60405180910390fd5b80600160008573ffffffffffffffffffffffffffffffffffffffff1673ffffffffffffffffffffffffffffffffffffffff16815260200190815260200160002060008473ffffffffffffffffffffffffffffffffffffffff1673ffffffffffffffffffffffffffffffffffffffff16815260200190815260200160002060006101000a81548160ff0219169083151502179055508173ffffffffffffffffffffffffffffffffffffffff168373ffffffffffffffffffffffffffffffffffffffff167f17307eab39ab6107e8899845ad3d59bd9653f200f220920489ca2b5937696c3183604051610ed59190611b80565b60405180910390a3505050565b600073ffffffffffffffffffffffffffffffffffffffff168373ffffffffffffffffffffffffffffffffffffffff1603610f51576040517f08c379a0000000000000000000000000000000000000000000000000000000008152600401610f4890612d59565b60405180910390fd5b6000610f5b610d6e565b90506000610f688461175a565b90506000610f758461175a565b9050610f9583876000858560405180602001604052806000815250611573565b600080600087815260200190815260200160002060008873ffffffffffffffffffffffffffffffffffffffff1673ffffffffffffffffffffffffffffffffffffffff1681526020019081526020016000205490508481101561102c576040517f08c379a000000000000000000000000000000000000000000000000000000000815260040161102390612deb565b60405180910390fd5b84810360008088815260200190815260200160002060008973ffffffffffffffffffffffffffffffffffffffff1673ffffffffffffffffffffffffffffffffffffffff16815260200190815260200160002081905550600073ffffffffffffffffffffffffffffffffffffffff168773ffffffffffffffffffffffffffffffffffffffff168573ffffffffffffffffffffffffffffffffffffffff167fc3d58168c5ae7397731d063d5bbf3d657854427343f4c083240f7aacaa2d0f6289896040516110f9929190612e0b565b60405180910390a461111f8488600086866040518060200160405280600081525061157b565b50505050505050565b600073ffffffffffffffffffffffffffffffffffffffff168473ffffffffffffffffffffffffffffffffffffffff1603611197576040517f08c379a000000000000000000000000000000000000000000000000000000000815260040161118e90612ea6565b60405180910390fd5b60006111a1610d6e565b905060006111ae8561175a565b905060006111bb8561175a565b90506111cc83600089858589611573565b8460008088815260200190815260200160002060008973ffffffffffffffffffffffffffffffffffffffff1673ffffffffffffffffffffffffffffffffffffffff168152602001908152602001600020600082825461122b9190612b10565b925050819055508673ffffffffffffffffffffffffffffffffffffffff16600073ffffffffffffffffffffffffffffffffffffffff168473ffffffffffffffffffffffffffffffffffffffff167fc3d58168c5ae7397731d063d5bbf3d657854427343f4c083240f7aacaa2d0f6289896040516112a9929190612e0b565b60405180910390a46112c08360008985858961157b565b6112cf836000898989896117d4565b50505050505050565b600073ffffffffffffffffffffffffffffffffffffffff168473ffffffffffffffffffffffffffffffffffffffff1603611347576040517f08c379a000000000000000000000000000000000000000000000000000000000815260040161133e90612a00565b60405180910390fd5b6000611351610d6e565b9050600061135e8561175a565b9050600061136b8561175a565b905061137b838989858589611573565b600080600088815260200190815260200160002060008a73ffffffffffffffffffffffffffffffffffffffff1673ffffffffffffffffffffffffffffffffffffffff16815260200190815260200160002054905085811015611412576040517f08c379a000000000000000000000000000000000000000000000000000000000815260040161140990612ac1565b60405180910390fd5b85810360008089815260200190815260200160002060008b73ffffffffffffffffffffffffffffffffffffffff1673ffffffffffffffffffffffffffffffffffffffff168152602001908152602001600020819055508560008089815260200190815260200160002060008a73ffffffffffffffffffffffffffffffffffffffff1673ffffffffffffffffffffffffffffffffffffffff16815260200190815260200160002060008282546114c79190612b10565b925050819055508773ffffffffffffffffffffffffffffffffffffffff168973ffffffffffffffffffffffffffffffffffffffff168573ffffffffffffffffffffffffffffffffffffffff167fc3d58168c5ae7397731d063d5bbf3d657854427343f4c083240f7aacaa2d0f628a8a604051611544929190612e0b565b60405180910390a461155a848a8a86868a61157b565b611568848a8a8a8a8a6117d4565b505050505050505050565b505050505050565b505050505050565b6115a28473ffffffffffffffffffffffffffffffffffffffff166119ab565b15611752578373ffffffffffffffffffffffffffffffffffffffff1663bc197c8187878686866040518663ffffffff1660e01b81526004016115e8959493929190612f1b565b6020604051808303816000875af192505050801561162457506040513d601f19601f820116820180604052508101906116219190612f98565b60015b6116c957611630612fd2565b806308c379a00361168c5750611644612ff4565b8061164f575061168e565b806040517f08c379a00000000000000000000000000000000000000000000000000000000081526004016116839190611c58565b60405180910390fd5b505b6040517f08c379a00000000000000000000000000000000000000000000000000000000081526004016116c0906130f6565b60405180910390fd5b63bc197c8160e01b7bffffffffffffffffffffffffffffffffffffffffffffffffffffffff1916817bffffffffffffffffffffffffffffffffffffffffffffffffffffffff191614611750576040517f08c379a000000000000000000000000000000000000000000000000000000000815260040161174790613188565b60405180910390fd5b505b505050505050565b60606000600167ffffffffffffffff81111561177957611778611c7f565b5b6040519080825280602002602001820160405280156117a75781602001602082028036833780820191505090505b50905082816000815181106117bf576117be612a20565b5b60200260200101818152505080915050919050565b6117f38473ffffffffffffffffffffffffffffffffffffffff166119ab565b156119a3578373ffffffffffffffffffffffffffffffffffffffff1663f23a6e6187878686866040518663ffffffff1660e01b81526004016118399594939291906131a8565b6020604051808303816000875af192505050801561187557506040513d601f19601f820116820180604052508101906118729190612f98565b60015b61191a57611881612fd2565b806308c379a0036118dd5750611895612ff4565b806118a057506118df565b806040517f08c379a00000000000000000000000000000000000000000000000000000000081526004016118d49190611c58565b60405180910390fd5b505b6040517f08c379a0000000000000000000000000000000000000000000000000000000008152600401611911906130f6565b60405180910390fd5b63f23a6e6160e01b7bffffffffffffffffffffffffffffffffffffffffffffffffffffffff1916817bffffffffffffffffffffffffffffffffffffffffffffffffffffffff1916146119a1576040517f08c379a000000000000000000000000000000000000000000000000000000000815260040161199890613188565b60405180910390fd5b505b505050505050565b6000808273ffffffffffffffffffffffffffffffffffffffff163b119050919050565b6000604051905090565b600080fd5b600080fd5b600073ffffffffffffffffffffffffffffffffffffffff82169050919050565b6000611a0d826119e2565b9050919050565b611a1d81611a02565b8114611a2857600080fd5b50565b600081359050611a3a81611a14565b92915050565b6000819050919050565b611a5381611a40565b8114611a5e57600080fd5b50565b600081359050611a7081611a4a565b92915050565b60008060408385031215611a8d57611a8c6119d8565b5b6000611a9b85828601611a2b565b9250506020611aac85828601611a61565b9150509250929050565b611abf81611a40565b82525050565b6000602082019050611ada6000830184611ab6565b92915050565b60007fffffffff0000000000000000000000000000000000000000000000000000000082169050919050565b611b1581611ae0565b8114611b2057600080fd5b50565b600081359050611b3281611b0c565b92915050565b600060208284031215611b4e57611b4d6119d8565b5b6000611b5c84828501611b23565b91505092915050565b60008115159050919050565b611b7a81611b65565b82525050565b6000602082019050611b956000830184611b71565b92915050565b600060208284031215611bb157611bb06119d8565b5b6000611bbf84828501611a61565b91505092915050565b600081519050919050565b600082825260208201905092915050565b60005b83811015611c02578082015181840152602081019050611be7565b60008484015250505050565b6000601f19601f8301169050919050565b6000611c2a82611bc8565b611c348185611bd3565b9350611c44818560208601611be4565b611c4d81611c0e565b840191505092915050565b60006020820190508181036000830152611c728184611c1f565b905092915050565b600080fd5b7f4e487b7100000000000000000000000000000000000000000000000000000000600052604160045260246000fd5b611cb782611c0e565b810181811067ffffffffffffffff82111715611cd657611cd5611c7f565b5b80604052505050565b6000611ce96119ce565b9050611cf58282611cae565b919050565b600067ffffffffffffffff821115611d1557611d14611c7f565b5b602082029050602081019050919050565b600080fd5b6000611d3e611d3984611cfa565b611cdf565b90508083825260208201905060208402830185811115611d6157611d60611d26565b5b835b81811015611d8a5780611d768882611a61565b845260208401935050602081019050611d63565b5050509392505050565b600082601f830112611da957611da8611c7a565b5b8135611db9848260208601611d2b565b91505092915050565b600080fd5b600067ffffffffffffffff821115611de257611de1611c7f565b5b611deb82611c0e565b9050602081019050919050565b82818337600083830152505050565b6000611e1a611e1584611dc7565b611cdf565b905082815260208101848484011115611e3657611e35611dc2565b5b611e41848285611df8565b509392505050565b600082601f830112611e5e57611e5d611c7a565b5b8135611e6e848260208601611e07565b91505092915050565b600080600080600060a08688031215611e9357611e926119d8565b5b6000611ea188828901611a2b565b9550506020611eb288828901611a2b565b945050604086013567ffffffffffffffff811115611ed357611ed26119dd565b5b611edf88828901611d94565b935050606086013567ffffffffffffffff811115611f0057611eff6119dd565b5b611f0c88828901611d94565b925050608086013567ffffffffffffffff811115611f2d57611f2c6119dd565b5b611f3988828901611e49565b9150509295509295909350565b600067ffffffffffffffff821115611f6157611f60611c7f565b5b602082029050602081019050919050565b6000611f85611f8084611f46565b611cdf565b90508083825260208201905060208402830185811115611fa857611fa7611d26565b5b835b81811015611fd15780611fbd8882611a2b565b845260208401935050602081019050611faa565b5050509392505050565b600082601f830112611ff057611fef611c7a565b5b8135612000848260208601611f72565b91505092915050565b600080604083850312156120205761201f6119d8565b5b600083013567ffffffffffffffff81111561203e5761203d6119dd565b5b61204a85828601611fdb565b925050602083013567ffffffffffffffff81111561206b5761206a6119dd565b5b61207785828601611d94565b9150509250929050565b600081519050919050565b600082825260208201905092915050565b6000819050602082019050919050565b6120b681611a40565b82525050565b60006120c883836120ad565b60208301905092915050565b6000602082019050919050565b60006120ec82612081565b6120f6818561208c565b93506121018361209d565b8060005b8381101561213257815161211988826120bc565b9750612124836120d4565b925050600181019050612105565b5085935050505092915050565b6000602082019050818103600083015261215981846120e1565b905092915050565b61216a81611a02565b82525050565b60006020820190506121856000830184612161565b92915050565b61219481611b65565b811461219f57600080fd5b50565b6000813590506121b18161218b565b92915050565b600080604083850312156121ce576121cd6119d8565b5b60006121dc85828601611a2b565b92505060206121ed858286016121a2565b9150509250929050565b6000806000606084860312156122105761220f6119d8565b5b600061221e86828701611a2b565b935050602061222f86828701611a61565b925050604061224086828701611a61565b9150509250925092565b60008060408385031215612261576122606119d8565b5b600061226f85828601611a2b565b925050602061228085828601611a2b565b9150509250929050565b600067ffffffffffffffff8211156122a5576122a4611c7f565b5b6122ae82611c0e565b9050602081019050919050565b60006122ce6122c98461228a565b611cdf565b9050828152602081018484840111156122ea576122e9611dc2565b5b6122f5848285611df8565b509392505050565b600082601f83011261231257612311611c7a565b5b81356123228482602086016122bb565b91505092915050565b600080600060608486031215612344576123436119d8565b5b600061235286828701611a61565b935050602061236386828701611a61565b925050604084013567ffffffffffffffff811115612384576123836119dd565b5b612390868287016122fd565b9150509250925092565b600080600080600060a086880312156123b6576123b56119d8565b5b60006123c488828901611a2b565b95505060206123d588828901611a2b565b94505060406123e688828901611a61565b93505060606123f788828901611a61565b925050608086013567ffffffffffffffff811115612418576124176119dd565b5b61242488828901611e49565b9150509295509295909350565b600060208284031215612447576124466119d8565b5b600061245584828501611a2b565b91505092915050565b7f4e487b7100000000000000000000000000000000000000000000000000000000600052602260045260246000fd5b600060028204905060018216806124a557607f821691505b6020821081036124b8576124b761245e565b5b50919050565b60008190508160005260206000209050919050565b60006020601f8301049050919050565b600082821b905092915050565b6000600883026125207fffffffffffffffffffffffffffffffffffffffffffffffffffffffffffffffff826124e3565b61252a86836124e3565b95508019841693508086168417925050509392505050565b6000819050919050565b600061256761256261255d84611a40565b612542565b611a40565b9050919050565b6000819050919050565b6125818361254c565b61259561258d8261256e565b8484546124f0565b825550505050565b600090565b6125aa61259d565b6125b5818484612578565b505050565b5b818110156125d9576125ce6000826125a2565b6001810190506125bb565b5050565b601f82111561261e576125ef816124be565b6125f8846124d3565b81016020851015612607578190505b61261b612613856124d3565b8301826125ba565b50505b505050565b600082821c905092915050565b600061264160001984600802612623565b1980831691505092915050565b600061265a8383612630565b9150826002028217905092915050565b61267382611bc8565b67ffffffffffffffff81111561268c5761268b611c7f565b5b612696825461248d565b6126a18282856125dd565b600060209050601f8311600181146126d457600084156126c2578287015190505b6126cc858261264e565b865550612734565b601f1984166126e2866124be565b60005b8281101561270a578489015182556001820191506020850194506020810190506126e5565b868310156127275784890151612723601f891682612630565b8355505b6001600288020188555050505b505050505050565b60006040820190506127516000830185611ab6565b81810360208301526127638184611c1f565b90509392505050565b7f4f776e61626c653a206e6577206f776e657220697320746865207a65726f206160008201527f6464726573730000000000000000000000000000000000000000000000000000602082015250565b60006127c8602683611bd3565b91506127d38261276c565b604082019050919050565b600060208201905081810360008301526127f7816127bb565b9050919050565b7f4f776e61626c653a2063616c6c6572206973206e6f7420746865206f776e6572600082015250565b6000612834602083611bd3565b915061283f826127fe565b602082019050919050565b6000602082019050818103600083015261286381612827565b9050919050565b7f455243313135353a2061646472657373207a65726f206973206e6f742061207660008201527f616c6964206f776e657200000000000000000000000000000000000000000000602082015250565b60006128c6602a83611bd3565b91506128d18261286a565b604082019050919050565b600060208201905081810360008301526128f5816128b9565b9050919050565b7f455243313135353a2069647320616e6420616d6f756e7473206c656e6774682060008201527f6d69736d61746368000000000000000000000000000000000000000000000000602082015250565b6000612958602883611bd3565b9150612963826128fc565b604082019050919050565b600060208201905081810360008301526129878161294b565b9050919050565b7f455243313135353a207472616e7366657220746f20746865207a65726f20616460008201527f6472657373000000000000000000000000000000000000000000000000000000602082015250565b60006129ea602583611bd3565b91506129f58261298e565b604082019050919050565b60006020820190508181036000830152612a19816129dd565b9050919050565b7f4e487b7100000000000000000000000000000000000000000000000000000000600052603260045260246000fd5b7f455243313135353a20696e73756666696369656e742062616c616e636520666f60008201527f72207472616e7366657200000000000000000000000000000000000000000000602082015250565b6000612aab602a83611bd3565b9150612ab682612a4f565b604082019050919050565b60006020820190508181036000830152612ada81612a9e565b9050919050565b7f4e487b7100000000000000000000000000000000000000000000000000000000600052601160045260246000fd5b6000612b1b82611a40565b9150612b2683611a40565b9250828201905080821115612b3e57612b3d612ae1565b5b92915050565b6000612b4f82611a40565b91507fffffffffffffffffffffffffffffffffffffffffffffffffffffffffffffffff8203612b8157612b80612ae1565b5b600182019050919050565b60006040820190508181036000830152612ba681856120e1565b90508181036020830152612bba81846120e1565b90509392505050565b7f455243313135353a206163636f756e747320616e6420696473206c656e67746860008201527f206d69736d617463680000000000000000000000000000000000000000000000602082015250565b6000612c1f602983611bd3565b9150612c2a82612bc3565b604082019050919050565b60006020820190508181036000830152612c4e81612c12565b9050919050565b7f455243313135353a2073657474696e6720617070726f76616c2073746174757360008201527f20666f722073656c660000000000000000000000000000000000000000000000602082015250565b6000612cb1602983611bd3565b9150612cbc82612c55565b604082019050919050565b60006020820190508181036000830152612ce081612ca4565b9050919050565b7f455243313135353a206275726e2066726f6d20746865207a65726f206164647260008201527f6573730000000000000000000000000000000000000000000000000000000000602082015250565b6000612d43602383611bd3565b9150612d4e82612ce7565b604082019050919050565b60006020820190508181036000830152612d7281612d36565b9050919050565b7f455243313135353a206275726e20616d6f756e7420657863656564732062616c60008201527f616e636500000000000000000000000000000000000000000000000000000000602082015250565b6000612dd5602483611bd3565b9150612de082612d79565b604082019050919050565b60006020820190508181036000830152612e0481612dc8565b9050919050565b6000604082019050612e206000830185611ab6565b612e2d6020830184611ab6565b9392505050565b7f455243313135353a206d696e7420746f20746865207a65726f2061646472657360008201527f7300000000000000000000000000000000000000000000000000000000000000602082015250565b6000612e90602183611bd3565b9150612e9b82612e34565b604082019050919050565b60006020820190508181036000830152612ebf81612e83565b9050919050565b600081519050919050565b600082825260208201905092915050565b6000612eed82612ec6565b612ef78185612ed1565b9350612f07818560208601611be4565b612f1081611c0e565b840191505092915050565b600060a082019050612f306000830188612161565b612f3d6020830187612161565b8181036040830152612f4f81866120e1565b90508181036060830152612f6381856120e1565b90508181036080830152612f778184612ee2565b90509695505050505050565b600081519050612f9281611b0c565b92915050565b600060208284031215612fae57612fad6119d8565b5b6000612fbc84828501612f83565b91505092915050565b60008160e01c9050919050565b600060033d1115612ff15760046000803e612fee600051612fc5565b90505b90565b600060443d10613081576130066119ce565b60043d036004823e80513d602482011167ffffffffffffffff8211171561302e575050613081565b808201805167ffffffffffffffff81111561304c5750505050613081565b80602083010160043d038501811115613069575050505050613081565b61307882602001850186611cae565b82955050505050505b90565b7f455243313135353a207472616e7366657220746f206e6f6e2d4552433131353560008201527f526563656976657220696d706c656d656e746572000000000000000000000000602082015250565b60006130e0603483611bd3565b91506130eb82613084565b604082019050919050565b6000602082019050818103600083015261310f816130d3565b9050919050565b7f455243313135353a204552433131353552656365697665722072656a6563746560008201527f6420746f6b656e73000000000000000000000000000000000000000000000000602082015250565b6000613172602883611bd3565b915061317d82613116565b604082019050919050565b600060208201905081810360008301526131a181613165565b9050919050565b600060a0820190506131bd6000830188612161565b6131ca6020830187612161565b6131d76040830186611ab6565b6131e46060830185611ab6565b81810360808301526131f68184612ee2565b9050969550505050505056fea26469706673582212208b511175f801993b0d4855ad0fd9e286cead1e82e75b4ed925e84b515b2d712964736f6c63430008110033",
  "linkReferences": {},
  "deployedLinkReferences": {}
}